{
  "abi": [
    {
      "inputs": [
        {
          "internalType": "contract FairLunch",
          "name": "_fairLunchOrigin",
          "type": "address"
        },
        {
          "internalType": "contract IJBDelegatesRegistry",
          "name": "_delegatesRegistry",
          "type": "address"
        }
      ],
      "stateMutability": "nonpayable",
      "type": "constructor"
    },
    {
      "inputs": [],
      "name": "delegatesRegistry",
      "outputs": [
        {
          "internalType": "contract IJBDelegatesRegistry",
          "name": "",
          "type": "address"
        }
      ],
      "stateMutability": "view",
      "type": "function"
    },
    {
      "inputs": [],
      "name": "fairLunchOrigin",
      "outputs": [
        {
          "internalType": "contract FairLunch",
          "name": "",
          "type": "address"
        }
      ],
      "stateMutability": "view",
      "type": "function"
    },
    {
      "inputs": [
        {
          "internalType": "uint256",
          "name": "_lpSupplyMultiplier",
          "type": "uint256"
        },
        {
          "components": [
            {
              "internalType": "bool",
              "name": "preferClaimed",
              "type": "bool"
            },
            {
              "internalType": "bool",
              "name": "preferAddToBalance",
              "type": "bool"
            },
            {
              "internalType": "uint256",
              "name": "percent",
              "type": "uint256"
            },
            {
              "internalType": "uint256",
              "name": "projectId",
              "type": "uint256"
            },
            {
              "internalType": "address payable",
              "name": "beneficiary",
              "type": "address"
            },
            {
              "internalType": "uint256",
              "name": "lockedUntil",
              "type": "uint256"
            },
            {
              "internalType": "contract IJBSplitAllocator",
              "name": "allocator",
              "type": "address"
            }
          ],
          "internalType": "struct JBSplit[]",
          "name": "_splits",
          "type": "tuple[]"
        }
      ],
      "name": "offerFairLunch",
      "outputs": [
        {
          "internalType": "contract FairLunch",
          "name": "_fairLunch",
          "type": "address"
        }
      ],
      "stateMutability": "nonpayable",
      "type": "function"
    }
  ],
  "bytecode": {
    "object": "0x60c060405234801561001057600080fd5b5060405161061938038061061983398101604081905261002f9161005e565b6001600160a01b039182166080521660a052610098565b6001600160a01b038116811461005b57600080fd5b50565b6000806040838503121561007157600080fd5b825161007c81610046565b602084015190925061008d81610046565b809150509250929050565b60805160a0516105516100c86000396000818160a10152610153015260008181607a015260ca01526105516000f3fe608060405234801561001057600080fd5b50600436106100415760003560e01c8063c1126a8314610046578063c89eb90f14610075578063d574ff041461009c575b600080fd5b61005961005436600461032e565b6100c3565b6040516001600160a01b03909116815260200160405180910390f35b6100597f000000000000000000000000000000000000000000000000000000000000000081565b6100597f000000000000000000000000000000000000000000000000000000000000000081565b60006100ee7f00000000000000000000000000000000000000000000000000000000000000006101f8565b6040516366dba11760e11b81529091506001600160a01b0382169063cdb7422e9061011f9086908690600401610456565b600060405180830381600087803b15801561013957600080fd5b505af115801561014d573d6000803e3d6000fd5b505050507f00000000000000000000000000000000000000000000000000000000000000006001600160a01b0316635bcfd21230600080815461018f906104f4565b91829055506040516001600160e01b031960e085901b1681526001600160a01b0390921660048301526024820152604401600060405180830381600087803b1580156101da57600080fd5b505af11580156101ee573d6000803e3d6000fd5b5050505092915050565b6000763d602d80600a3d3981f3363d3d373d3d3d363d730000008260601b60e81c176000526e5af43d82803e903d91602b57fd5bf38260781b17602052603760096000f090506001600160a01b0381166102915760405162461bcd60e51b8152602060048201526016602482015275115490cc4c4d8dce8818dc99585d194819985a5b195960521b604482015260640160405180910390fd5b919050565b634e487b7160e01b600052604160045260246000fd5b60405160e0810167ffffffffffffffff811182821017156102cf576102cf610296565b60405290565b604051601f8201601f1916810167ffffffffffffffff811182821017156102fe576102fe610296565b604052919050565b8035801515811461029157600080fd5b6001600160a01b038116811461032b57600080fd5b50565b600080604080848603121561034257600080fd5b8335925060208085013567ffffffffffffffff8082111561036257600080fd5b818701915087601f83011261037657600080fd5b81358181111561038857610388610296565b610396848260051b016102d5565b818152848101925060e091820284018501918a8311156103b557600080fd5b938501935b828510156104455780858c0312156103d25760008081fd5b6103da6102ac565b6103e386610306565b81526103f0878701610306565b8188015285880135888201526060808701359082015260808087013561041581610316565b9082015260a0868101359082015260c08087013561043281610316565b90820152845293840193928501926103ba565b508096505050505050509250929050565b600060408083018584526020828186015281865180845260609350838701915082880160005b828110156104e557815180511515855285810151151586860152878101518886015286810151878601526080808201516001600160a01b039081169187019190915260a0808301519087015260c091820151169085015260e0909301929084019060010161047c565b50919998505050505050505050565b60006001820161051457634e487b7160e01b600052601160045260246000fd5b506001019056fea264697066735822122043e195faab59989d22ac71a08a3752de4382d999d2c280b073658364a52ce95964736f6c63430008110033",
    "linkReferences": {}
  },
  "methodIdentifiers": {
    "delegatesRegistry()": "d574ff04",
    "fairLunchOrigin()": "c89eb90f",
    "offerFairLunch(uint256,(bool,bool,uint256,uint256,address,uint256,address)[])": "c1126a83"
  },
  "id": 100
}