{
  "abi": [
    {
      "inputs": [
        {
          "internalType": "contract FairLunch",
          "name": "_fairLunchOrigin",
          "type": "address"
        },
        {
          "internalType": "contract IJBDelegatesRegistry",
          "name": "_delegatesRegistry",
          "type": "address"
        }
      ],
      "stateMutability": "nonpayable",
      "type": "constructor"
    },
    {
      "anonymous": false,
      "inputs": [
        {
          "indexed": false,
          "internalType": "contract FairLunch",
          "name": "lunch",
          "type": "address"
        },
        {
          "indexed": false,
          "internalType": "address",
          "name": "caller",
          "type": "address"
        }
      ],
      "name": "TableSet",
      "type": "event"
    },
    {
      "inputs": [],
      "name": "delegatesRegistry",
      "outputs": [
        {
          "internalType": "contract IJBDelegatesRegistry",
          "name": "",
          "type": "address"
        }
      ],
      "stateMutability": "view",
      "type": "function"
    },
    {
      "inputs": [],
      "name": "fairLunchOrigin",
      "outputs": [
        {
          "internalType": "contract FairLunch",
          "name": "",
          "type": "address"
        }
      ],
      "stateMutability": "view",
      "type": "function"
    },
    {
      "inputs": [
        {
          "internalType": "uint256",
          "name": "_lpSupplyMultiplier",
          "type": "uint256"
        },
        {
          "components": [
            {
              "internalType": "bool",
              "name": "preferClaimed",
              "type": "bool"
            },
            {
              "internalType": "bool",
              "name": "preferAddToBalance",
              "type": "bool"
            },
            {
              "internalType": "uint256",
              "name": "percent",
              "type": "uint256"
            },
            {
              "internalType": "uint256",
              "name": "projectId",
              "type": "uint256"
            },
            {
              "internalType": "address payable",
              "name": "beneficiary",
              "type": "address"
            },
            {
              "internalType": "uint256",
              "name": "lockedUntil",
              "type": "uint256"
            },
            {
              "internalType": "contract IJBSplitAllocator",
              "name": "allocator",
              "type": "address"
            }
          ],
          "internalType": "struct JBSplit[]",
          "name": "_splits",
          "type": "tuple[]"
        }
      ],
      "name": "offerFairLunch",
      "outputs": [
        {
          "internalType": "contract FairLunch",
          "name": "_fairLunch",
          "type": "address"
        }
      ],
      "stateMutability": "nonpayable",
      "type": "function"
    }
  ],
  "bytecode": {
    "object": "0x60c060405234801561001057600080fd5b5060405161078438038061078483398101604081905261002f9161005e565b6001600160a01b039182166080521660a052610098565b6001600160a01b038116811461005b57600080fd5b50565b6000806040838503121561007157600080fd5b825161007c81610046565b602084015190925061008d81610046565b809150509250929050565b60805160a0516106bc6100c86000396000818160ae01526101860152600081816087015260d701526106bc6000f3fe608060405234801561001057600080fd5b50600436106100415760003560e01c8063c1126a8314610046578063c89eb90f14610082578063d574ff04146100a9575b600080fd5b610059610054366004610454565b6100d0565b60405173ffffffffffffffffffffffffffffffffffffffff909116815260200160405180910390f35b6100597f000000000000000000000000000000000000000000000000000000000000000081565b6100597f000000000000000000000000000000000000000000000000000000000000000081565b60006100fb7f00000000000000000000000000000000000000000000000000000000000000006102ac565b6040517fcdb7422e00000000000000000000000000000000000000000000000000000000815290915073ffffffffffffffffffffffffffffffffffffffff82169063cdb7422e90610152908690869060040161057c565b600060405180830381600087803b15801561016c57600080fd5b505af1158015610180573d6000803e3d6000fd5b505050507f000000000000000000000000000000000000000000000000000000000000000073ffffffffffffffffffffffffffffffffffffffff16635bcfd2123060008081546101cf90610627565b91829055506040517fffffffff0000000000000000000000000000000000000000000000000000000060e085901b16815273ffffffffffffffffffffffffffffffffffffffff90921660048301526024820152604401600060405180830381600087803b15801561023f57600080fd5b505af1158015610253573d6000803e3d6000fd5b50506040805173ffffffffffffffffffffffffffffffffffffffff851681523360208201527f5595bea153d2c74943b8a14783a92110a3fd59894160fa3a73c16a6df7a5dfe9935001905060405180910390a192915050565b6000763d602d80600a3d3981f3363d3d373d3d3d363d730000008260601b60e81c176000526e5af43d82803e903d91602b57fd5bf38260781b17602052603760096000f0905073ffffffffffffffffffffffffffffffffffffffff8116610373576040517f08c379a000000000000000000000000000000000000000000000000000000000815260206004820152601660248201527f455243313136373a20637265617465206661696c656400000000000000000000604482015260640160405180910390fd5b919050565b7f4e487b7100000000000000000000000000000000000000000000000000000000600052604160045260246000fd5b60405160e0810167ffffffffffffffff811182821017156103ca576103ca610378565b60405290565b604051601f82017fffffffffffffffffffffffffffffffffffffffffffffffffffffffffffffffe016810167ffffffffffffffff8111828210171561041757610417610378565b604052919050565b8035801515811461037357600080fd5b73ffffffffffffffffffffffffffffffffffffffff8116811461045157600080fd5b50565b600080604080848603121561046857600080fd5b8335925060208085013567ffffffffffffffff8082111561048857600080fd5b818701915087601f83011261049c57600080fd5b8135818111156104ae576104ae610378565b6104bc848260051b016103d0565b818152848101925060e091820284018501918a8311156104db57600080fd5b938501935b8285101561056b5780858c0312156104f85760008081fd5b6105006103a7565b6105098661041f565b815261051687870161041f565b8188015285880135888201526060808701359082015260808087013561053b8161042f565b9082015260a0868101359082015260c0808701356105588161042f565b90820152845293840193928501926104e0565b508096505050505050509250929050565b600060408083018584526020828186015281865180845260609350838701915082880160005b82811015610618578151805115158552858101511515868601528781015188860152868101518786015260808082015173ffffffffffffffffffffffffffffffffffffffff9081169187019190915260a0808301519087015260c091820151169085015260e090930192908401906001016105a2565b50919998505050505050505050565b60007fffffffffffffffffffffffffffffffffffffffffffffffffffffffffffffffff820361067f577f4e487b7100000000000000000000000000000000000000000000000000000000600052601160045260246000fd5b506001019056fea2646970667358221220c8ab455f8bc04841aaa17abf35e39809a03eb27844bd12635a420993449007b364736f6c63430008110033",
    "linkReferences": {}
  },
  "methodIdentifiers": {
    "delegatesRegistry()": "d574ff04",
    "fairLunchOrigin()": "c89eb90f",
    "offerFairLunch(uint256,(bool,bool,uint256,uint256,address,uint256,address)[])": "c1126a83"
  },
  "id": 100
}