{
  "abi": [
    {
      "inputs": [
        {
          "internalType": "contract FairLunch",
          "name": "_fairLunchOrigin",
          "type": "address"
        }
      ],
      "stateMutability": "nonpayable",
      "type": "constructor"
    },
    {
      "inputs": [],
      "name": "fairLunchOrigin",
      "outputs": [
        {
          "internalType": "contract FairLunch",
          "name": "",
          "type": "address"
        }
      ],
      "stateMutability": "view",
      "type": "function"
    },
    {
      "inputs": [
        {
          "internalType": "uint256",
          "name": "_lpSupplyMultiplier",
          "type": "uint256"
        },
        {
          "components": [
            {
              "internalType": "bool",
              "name": "preferClaimed",
              "type": "bool"
            },
            {
              "internalType": "bool",
              "name": "preferAddToBalance",
              "type": "bool"
            },
            {
              "internalType": "uint256",
              "name": "percent",
              "type": "uint256"
            },
            {
              "internalType": "uint256",
              "name": "projectId",
              "type": "uint256"
            },
            {
              "internalType": "address payable",
              "name": "beneficiary",
              "type": "address"
            },
            {
              "internalType": "uint256",
              "name": "lockedUntil",
              "type": "uint256"
            },
            {
              "internalType": "contract IJBSplitAllocator",
              "name": "allocator",
              "type": "address"
            }
          ],
          "internalType": "struct JBSplit[]",
          "name": "_splits",
          "type": "tuple[]"
        }
      ],
      "name": "offerFairLunch",
      "outputs": [
        {
          "internalType": "contract FairLunch",
          "name": "_fairLunch",
          "type": "address"
        }
      ],
      "stateMutability": "nonpayable",
      "type": "function"
    }
  ],
  "bytecode": {
    "object": "0x60a060405234801561001057600080fd5b506040516104e73803806104e783398101604081905261002f91610040565b6001600160a01b0316608052610070565b60006020828403121561005257600080fd5b81516001600160a01b038116811461006957600080fd5b9392505050565b60805161045761009060003960008181606f0152609801526104576000f3fe608060405234801561001057600080fd5b50600436106100365760003560e01c8063c1126a831461003b578063c89eb90f1461006a575b600080fd5b61004e61004936600461025b565b610091565b6040516001600160a01b03909116815260200160405180910390f35b61004e7f000000000000000000000000000000000000000000000000000000000000000081565b60006100bc7f0000000000000000000000000000000000000000000000000000000000000000610125565b6040516366dba11760e11b81529091506001600160a01b0382169063cdb7422e906100ed9086908690600401610383565b600060405180830381600087803b15801561010757600080fd5b505af115801561011b573d6000803e3d6000fd5b5050505092915050565b6000763d602d80600a3d3981f3363d3d373d3d3d363d730000008260601b60e81c176000526e5af43d82803e903d91602b57fd5bf38260781b17602052603760096000f090506001600160a01b0381166101be5760405162461bcd60e51b8152602060048201526016602482015275115490cc4c4d8dce8818dc99585d194819985a5b195960521b604482015260640160405180910390fd5b919050565b634e487b7160e01b600052604160045260246000fd5b60405160e0810167ffffffffffffffff811182821017156101fc576101fc6101c3565b60405290565b604051601f8201601f1916810167ffffffffffffffff8111828210171561022b5761022b6101c3565b604052919050565b803580151581146101be57600080fd5b6001600160a01b038116811461025857600080fd5b50565b600080604080848603121561026f57600080fd5b8335925060208085013567ffffffffffffffff8082111561028f57600080fd5b818701915087601f8301126102a357600080fd5b8135818111156102b5576102b56101c3565b6102c3848260051b01610202565b818152848101925060e091820284018501918a8311156102e257600080fd5b938501935b828510156103725780858c0312156102ff5760008081fd5b6103076101d9565b61031086610233565b815261031d878701610233565b8188015285880135888201526060808701359082015260808087013561034281610243565b9082015260a0868101359082015260c08087013561035f81610243565b90820152845293840193928501926102e7565b508096505050505050509250929050565b600060408083018584526020828186015281865180845260609350838701915082880160005b8281101561041257815180511515855285810151151586860152878101518886015286810151878601526080808201516001600160a01b039081169187019190915260a0808301519087015260c091820151169085015260e090930192908401906001016103a9565b5091999850505050505050505056fea264697066735822122083c2312f3507ef9ac182b4136f4ee309389d8ec26cc0cbff04f9d28be0676f5164736f6c63430008110033",
    "linkReferences": {}
  },
  "methodIdentifiers": {
    "fairLunchOrigin()": "c89eb90f",
    "offerFairLunch(uint256,(bool,bool,uint256,uint256,address,uint256,address)[])": "c1126a83"
  },
  "id": 99
}