{
  "abi": [
    {
      "inputs": [
        {
          "internalType": "contract FairLunch",
          "name": "_fairLunchOrigin",
          "type": "address"
        }
      ],
      "stateMutability": "nonpayable",
      "type": "constructor"
    },
    {
      "inputs": [],
      "name": "fairLunchOrigin",
      "outputs": [
        {
          "internalType": "contract FairLunch",
          "name": "",
          "type": "address"
        }
      ],
      "stateMutability": "view",
      "type": "function"
    },
    {
      "inputs": [
        {
          "internalType": "uint256",
          "name": "_lpSupplyMultiplier",
          "type": "uint256"
        }
      ],
      "name": "offerFairLunch",
      "outputs": [
        {
          "internalType": "contract FairLunch",
          "name": "_fairLunch",
          "type": "address"
        }
      ],
      "stateMutability": "nonpayable",
      "type": "function"
    }
  ],
  "bytecode": {
    "object": "0x60a060405234801561001057600080fd5b5060405161029638038061029683398101604081905261002f91610040565b6001600160a01b0316608052610070565b60006020828403121561005257600080fd5b81516001600160a01b038116811461006957600080fd5b9392505050565b6080516102066100906000396000818160400152609301526102066000f3fe608060405234801561001057600080fd5b50600436106100365760003560e01c8063c89eb90f1461003b578063fbff2aa81461007e575b600080fd5b6100627f000000000000000000000000000000000000000000000000000000000000000081565b6040516001600160a01b03909116815260200160405180910390f35b61006261008c3660046101b7565b60006100b77f0000000000000000000000000000000000000000000000000000000000000000610119565b604051633b1189c160e21b8152600481018490529091506001600160a01b0382169063ec46270490602401600060405180830381600087803b1580156100fc57600080fd5b505af1158015610110573d6000803e3d6000fd5b50505050919050565b6000763d602d80600a3d3981f3363d3d373d3d3d363d730000008260601b60e81c176000526e5af43d82803e903d91602b57fd5bf38260781b17602052603760096000f090506001600160a01b0381166101b25760405162461bcd60e51b8152602060048201526016602482015275115490cc4c4d8dce8818dc99585d194819985a5b195960521b604482015260640160405180910390fd5b919050565b6000602082840312156101c957600080fd5b503591905056fea26469706673582212207a33f7a6be6df20b8cd7d37417d14bd3dbca26e890a5ad0c58784ef475d4c8a764736f6c63430008110033",
    "linkReferences": {}
  },
  "methodIdentifiers": {
    "fairLunchOrigin()": "c89eb90f",
    "offerFairLunch(uint256)": "fbff2aa8"
  },
  "id": 99
}