{
  "abi": [
    {
      "inputs": [
        {
          "internalType": "uint256",
          "name": "_projectId",
          "type": "uint256"
        },
        {
          "internalType": "uint256",
          "name": "_lpPercent",
          "type": "uint256"
        },
        {
          "internalType": "string",
          "name": "_symbol",
          "type": "string"
        },
        {
          "internalType": "string",
          "name": "_name",
          "type": "string"
        },
        {
          "internalType": "contract IJBController3_1",
          "name": "_controller",
          "type": "address"
        },
        {
          "internalType": "contract INonfungiblePositionManager",
          "name": "_positionManager",
          "type": "address"
        },
        {
          "internalType": "contract IWETH9",
          "name": "_weth",
          "type": "address"
        },
        {
          "internalType": "uint256",
          "name": "_serverRefund",
          "type": "uint256"
        }
      ],
      "stateMutability": "nonpayable",
      "type": "constructor"
    },
    {
      "inputs": [],
      "name": "BAD",
      "type": "error"
    },
    {
      "inputs": [
        {
          "internalType": "uint256",
          "name": "prod1",
          "type": "uint256"
        },
        {
          "internalType": "uint256",
          "name": "denominator",
          "type": "uint256"
        }
      ],
      "name": "PRBMath__MulDivOverflow",
      "type": "error"
    },
    {
      "inputs": [],
      "name": "serveLunch",
      "outputs": [],
      "stateMutability": "nonpayable",
      "type": "function"
    },
    {
      "inputs": [],
      "name": "sweepCrumbs",
      "outputs": [],
      "stateMutability": "nonpayable",
      "type": "function"
    }
  ],
  "bytecode": {
    "object": "0x60806040523480156200001157600080fd5b5060405162001c7b38038062001c7b8339810160408190526200003491620001b4565b6005871080620000445750606487115b15620000635760405163070259db60e11b815260040160405180910390fd5b6000889055600187905560046200007b87826200030d565b5060056200008a86826200030d565b50600280546001600160a01b03199081166001600160a01b039687161790915560038054821694861694909417909355600680549093169190931617905560085550620003d992505050565b634e487b7160e01b600052604160045260246000fd5b600082601f830112620000fe57600080fd5b81516001600160401b03808211156200011b576200011b620000d6565b604051601f8301601f19908116603f01168101908282118183101715620001465762000146620000d6565b816040528381526020925086838588010111156200016357600080fd5b600091505b8382101562000187578582018301518183018401529082019062000168565b600093810190920192909252949350505050565b6001600160a01b0381168114620001b157600080fd5b50565b600080600080600080600080610100898b031215620001d257600080fd5b885160208a015160408b015191995097506001600160401b0380821115620001f957600080fd5b620002078c838d01620000ec565b975060608b01519150808211156200021e57600080fd5b506200022d8b828c01620000ec565b955050608089015162000240816200019b565b60a08a015190945062000253816200019b565b60c08a015190935062000266816200019b565b8092505060e089015190509295985092959890939650565b600181811c908216806200029357607f821691505b602082108103620002b457634e487b7160e01b600052602260045260246000fd5b50919050565b601f8211156200030857600081815260208120601f850160051c81016020861015620002e35750805b601f850160051c820191505b818110156200030457828155600101620002ef565b5050505b505050565b81516001600160401b03811115620003295762000329620000d6565b62000341816200033a84546200027e565b84620002ba565b602080601f831160018114620003795760008415620003605750858301515b600019600386901b1c1916600185901b17855562000304565b600085815260208120601f198616915b82811015620003aa5788860151825594840194600190910190840162000389565b5085821015620003c95787850151600019600388901b60f8161c191681555b5050505050600190811b01905550565b61189280620003e96000396000f3fe608060405234801561001057600080fd5b50600436106100365760003560e01c80633d01d2c71461003b578063c08e7aac14610045575b600080fd5b61004361004d565b005b610043610c13565b600254604080516331070bc960e21b815290516000926001600160a01b03169163c41c2f249160048083019260209291908290030181865afa158015610097573d6000803e3d6000fd5b505050506040513d601f19601f820116820180604052508101906100bb9190611183565b600054604051630862026560e41b8152600481019190915261eeee60248201526001600160a01b039190911690638620265090604401602060405180830381865afa15801561010e573d6000803e3d6000fd5b505050506040513d601f19601f820116820180604052508101906101329190611183565b90506000816001600160a01b031663975057e76040518163ffffffff1660e01b8152600401602060405180830381865afa158015610174573d6000803e3d6000fd5b505050506040513d601f19601f820116820180604052508101906101989190611183565b600054604051627eeac760e11b81526001600160a01b038581166004830152602482019290925291169062fdd58e90604401602060405180830381865afa1580156101e7573d6000803e3d6000fd5b505050506040513d601f19601f8201168201806040525081019061020b91906111a0565b90506000600260009054906101000a90046001600160a01b03166001600160a01b031663619306306040518163ffffffff1660e01b8152600401602060405180830381865afa158015610262573d6000803e3d6000fd5b505050506040513d601f19601f820116820180604052508101906102869190611183565b6001600160a01b031663a7f2a70b600054600560046040518463ffffffff1660e01b81526004016102b99392919061125d565b6020604051808303816000875af11580156102d8573d6000803e3d6000fd5b505050506040513d601f19601f820116820180604052508101906102fc9190611183565b60408051600180825281830190925291925060009190816020015b6103626040518060c0016040528060006001600160a01b0316815260200160006001600160a01b03168152602001600081526020016000815260200160008152602001600081525090565b81526020019060019003908161031757905050604051631982d67960e01b815261eeee60048201529091506000906001600160a01b03861690631982d67990602401602060405180830381865afa1580156103c1573d6000803e3d6000fd5b505050506040513d601f19601f820116820180604052508101906103e591906111a0565b90506040518060c00160405280866001600160a01b0316815260200161eeee6001600160a01b031681526020018581526020018281526020016000815260200160008152508260008151811061043d5761043d611292565b6020908102919091018101919091526040805160e0810182526000808252928101839052633b9aca00818301526060810183905230608082015260a0810183905260c0810183905281516001808252818401909352909291816020015b6040805160e08101825260008082526020808301829052928201819052606082018190526080820181905260a0820181905260c0820152825260001990920191018161049a57905050905081816000815181106104f9576104f9611292565b6020908102919091010152604080516001808252818301909252600091816020015b60408051808201909152600081526060602082015281526020019060019003908161051b579050509050604051806040016040528060018152602001838152508160008151811061056e5761056e611292565b602090810291909101810191909152600254600080546040805160808082018352848252818701859052818301859052606080830186905283516102a081018552610240810187815261026082018890526102808201889052815297880186905261271088850181905290880152600190870181905260a0870185905260c0870185905260e0870185905261010087015261012086018490526101408601849052610160860184905261018086018490526101a086018490526101c086018490526101e0860184905261020086018490526102208601849052905163175b7be560e31b81526001600160a01b039094169463badbdf2894610676949088908d90600401611403565b6020604051808303816000875af1158015610695573d6000803e3d6000fd5b505050506040513d601f19601f820116820180604052508101906106b991906111a0565b5060006107b0600260009054906101000a90046001600160a01b03166001600160a01b031663619306306040518163ffffffff1660e01b8152600401602060405180830381865afa158015610712573d6000803e3d6000fd5b505050506040513d601f19601f820116820180604052508101906107369190611183565b6001600160a01b03166375b0d9cd6000546040518263ffffffff1660e01b815260040161076591815260200190565b602060405180830381865afa158015610782573d6000803e3d6000fd5b505050506040513d601f19601f820116820180604052508101906107a691906111a0565b6001546064611094565b60025460008054604051638ae9c07b60e01b815260048101919091526024810184905230604482015260c06064820152601560c482015274092dccee4cac8d2cadce8e640ccdee440d8eadcc6d605b1b60e48201526001608482015260a48101919091529192506001600160a01b031690638ae9c07b90610104016020604051808303816000875af115801561084a573d6000803e3d6000fd5b505050506040513d601f19601f8201168201806040525081019061086e91906111a0565b506000805460408051602081018252928352516301290c1760e61b81526001600160a01b038c1692634a4305c0926108b59290918d918b9161eeee91849190600401611630565b6020604051808303816000875af11580156108d4573d6000803e3d6000fd5b505050506040513d601f19601f820116820180604052508101906108f891906111a0565b506006546008546001600160a01b039091169063d0e30db09061091b904761168b565b6040518263ffffffff1660e01b81526004016000604051808303818588803b15801561094657600080fd5b505af115801561095a573d6000803e3d6000fd5b505060035460405163095ea7b360e01b81526001600160a01b03918216600482015260248101869052908b16935063095ea7b3925060440190506020604051808303816000875af11580156109b3573d6000803e3d6000fd5b505050506040513d601f19601f820116820180604052508101906109d791906116a4565b506006546003546040516370a0823160e01b81523060048201526001600160a01b039283169263095ea7b392169083906370a0823190602401602060405180830381865afa158015610a2d573d6000803e3d6000fd5b505050506040513d601f19601f82011682018060405250810190610a5191906111a0565b6040516001600160e01b031960e085901b1681526001600160a01b03909216600483015260248201526044016020604051808303816000875af1158015610a9c573d6000803e3d6000fd5b505050506040513d601f19601f82011682018060405250810190610ac091906116a4565b5060035460408051610160810182526001600160a01b038a8116825260065481166020830181905261271083850152620d89e7196060840152620d89e8608084015260a0830186905292516370a0823160e01b815230600482015260009491909116926388316456929160c0830191906370a0823190602401602060405180830381865afa158015610b56573d6000803e3d6000fd5b505050506040513d601f19601f82011682018060405250810190610b7a91906111a0565b81526000602082018190526040820152306060820152608001610b9f4261ea606116c6565b8152506040518263ffffffff1660e01b8152600401610bbe91906116d9565b6080604051808303816000875af1158015610bdd573d6000803e3d6000fd5b505050506040513d601f19601f82011682018060405250810190610c01919061179d565b50505060075550505050505050505050565b60035460408051608081018252600754815230602082019081526001600160801b0382840181815260608401828152945163fc6f786560e01b81529351600485015291516001600160a01b0390811660248501529151811660448401529251909216606482015291169063fc6f78659060840160408051808303816000875af1158015610ca4573d6000803e3d6000fd5b505050506040513d601f19601f82011682018060405250810190610cc891906117e7565b50506006546040516370a0823160e01b81523060048201526001600160a01b0390911690632e1a7d4d9082906370a0823190602401602060405180830381865afa158015610d1a573d6000803e3d6000fd5b505050506040513d601f19601f82011682018060405250810190610d3e91906111a0565b6040518263ffffffff1660e01b8152600401610d5c91815260200190565b600060405180830381600087803b158015610d7657600080fd5b505af1158015610d8a573d6000803e3d6000fd5b505050506000600260009054906101000a90046001600160a01b03166001600160a01b031663c41c2f246040518163ffffffff1660e01b8152600401602060405180830381865afa158015610de3573d6000803e3d6000fd5b505050506040513d601f19601f82011682018060405250810190610e079190611183565b600054604051630862026560e41b8152600481019190915261eeee60248201526001600160a01b039190911690638620265090604401602060405180830381865afa158015610e5a573d6000803e3d6000fd5b505050506040513d601f19601f82011682018060405250810190610e7e9190611183565b9050806001600160a01b0316630cf8e858476000544761eeee603160f81b604051602001610eae91815260200190565b6040516020818303038152906040526040518663ffffffff1660e01b8152600401610edc949392919061180b565b6000604051808303818588803b158015610ef557600080fd5b505af1158015610f09573d6000803e3d6000fd5b505060025460005460408051630619306360e41b815290516001600160a01b039093169550631665bc0f94503093509091859163619306309160048083019260209291908290030181865afa158015610f66573d6000803e3d6000fd5b505050506040513d601f19601f82011682018060405250810190610f8a9190611183565b600054604051627eeac760e11b815230600482015260248101919091526001600160a01b03919091169062fdd58e90604401602060405180830381865afa158015610fd9573d6000803e3d6000fd5b505050506040513d601f19601f82011682018060405250810190610ffd91906111a0565b6040516001600160e01b031960e086901b1681526001600160a01b0390931660048401526024830191909152604482015260a06064820152601060a48201526f6d6d6d6d6d2c2064656c6963696f757360801b60c48201526001608482015260e401600060405180830381600087803b15801561107957600080fd5b505af115801561108d573d6000803e3d6000fd5b5050505050565b60008080600019858709858702925082811083820303915050806000036110ce578382816110c4576110c4611846565b0492505050611164565b8381106110fc57604051631dcf306360e21b8152600481018290526024810185905260440160405180910390fd5b600084868809851960019081018716968790049682860381900495909211909303600082900391909104909201919091029190911760038402600290811880860282030280860282030280860282030280860282030280860282030280860290910302029150505b9392505050565b6001600160a01b038116811461118057600080fd5b50565b60006020828403121561119557600080fd5b81516111648161116b565b6000602082840312156111b257600080fd5b5051919050565b8054600090600181811c90808316806111d357607f831692505b602080841082036111f457634e487b7160e01b600052602260045260246000fd5b8388526020880182801561120f576001811461122557611250565b60ff198716825285151560051b82019750611250565b60008981526020902060005b8781101561124a57815484820152908601908401611231565b83019850505b5050505050505092915050565b83815260606020820152600061127660608301856111b9565b828103604084015261128881856111b9565b9695505050505050565b634e487b7160e01b600052603260045260246000fd5b600081518084526020808501808196508360051b810191508286016000805b8681101561137a578385038a52825180518652860151604087870181905281518188018190529188019160609081890190865b818110156113635785518051151584528c81015115158d850152858101518685015284810151858501526080808201516001600160a01b039081169186019190915260a0808301519086015260c0918201511690840152948b019460e0909201916001016112fa565b50509c89019c9750505092860192506001016112c7565b509298975050505050505050565b600081518084526020808501945080840160005b838110156113f857815180516001600160a01b03908116895284820151168489015260408082015190890152606080820151908901526080808201519089015260a0908101519088015260c0909601959082019060010161139c565b509495945050505050565b60006103a088835287516020840152602088015160408401526040880151606084015260018060a01b03606089015116608084015261146060a0840188518051151582526020808201511515908301526040908101511515910152565b6020870151610100818186015260408901519150610120828187015260608a01519250610140838188015260808b015193506101606114a28189018615159052565b60a08c015194506101806114b9818a018715159052565b60c08d015195506101a06114d0818b018815159052565b60e08e015196506101c06114e7818c018915159052565b958e015196506101e0956114fe8b88018915159052565b948e01519650610200946115158b87018915159052565b938e015196506102209361152c8b86018915159052565b928e015115156102408b0152908d015115156102608a01528c015115156102808901528b015115156102a0880152918a015115156102c08701528901516001600160a01b03166102e0860152880151610300850152506103208301869052610340830181905261159e818401866112a8565b90508281036103608401526115b38185611388565b838103610380850152600e81526d0a0e4cae0e0d2dcce40d8eadcc6d60931b60208201529050604081019998505050505050505050565b6000815180845260005b81811015611610576020818501810151868301820152016115f4565b506000602082860101526020601f19601f83011685010191505092915050565b86815285602082015284604082015260018060a01b038416606082015282608082015260c060a0820152600061166960c08301846115ea565b98975050505050505050565b634e487b7160e01b600052601160045260246000fd5b8181038181111561169e5761169e611675565b92915050565b6000602082840312156116b657600080fd5b8151801515811461116457600080fd5b8082018082111561169e5761169e611675565b81516001600160a01b031681526101608101602083015161170560208401826001600160a01b03169052565b50604083015161171c604084018262ffffff169052565b506060830151611731606084018260020b9052565b506080830151611746608084018260020b9052565b5060a083015160a083015260c083015160c083015260e083015160e08301526101008084015181840152506101208084015161178c828501826001600160a01b03169052565b505061014092830151919092015290565b600080600080608085870312156117b357600080fd5b8451935060208501516001600160801b03811681146117d157600080fd5b6040860151606090960151949790965092505050565b600080604083850312156117fa57600080fd5b505080516020909101519092909150565b84815283602082015260018060a01b038316604082015260a06060820152600060a082015260c06080820152600061128860c08301846115ea565b634e487b7160e01b600052601260045260246000fdfea2646970667358221220b11725d80a5382a34d74e247dd66b707bb41e54e6959b50cbdc7049e505d1a6d64736f6c63430008110033",
    "linkReferences": {}
  },
  "methodIdentifiers": {
    "serveLunch()": "3d01d2c7",
    "sweepCrumbs()": "c08e7aac"
  },
  "id": 82
}