{
  "abi": [
    {
      "inputs": [
        {
          "internalType": "contract IJBController3_1",
          "name": "_controller",
          "type": "address"
        },
        {
          "internalType": "contract INonfungiblePositionManager",
          "name": "_positionManager",
          "type": "address"
        },
        {
          "internalType": "contract IWETH9",
          "name": "__weth",
          "type": "address"
        }
      ],
      "stateMutability": "nonpayable",
      "type": "constructor"
    },
    {
      "inputs": [],
      "name": "LUNCH_ALREADY_SERVED",
      "type": "error"
    },
    {
      "inputs": [],
      "name": "LUNCH_CANT_BE_SERVED_YET",
      "type": "error"
    },
    {
      "inputs": [],
      "name": "YUCK",
      "type": "error"
    },
    {
      "anonymous": false,
      "inputs": [
        {
          "indexed": true,
          "internalType": "uint256",
          "name": "projectId",
          "type": "uint256"
        }
      ],
      "name": "BluntHasBeenPassed",
      "type": "event"
    },
    {
      "anonymous": false,
      "inputs": [
        {
          "indexed": true,
          "internalType": "uint256",
          "name": "projectId",
          "type": "uint256"
        },
        {
          "indexed": true,
          "internalType": "uint256",
          "name": "lpId",
          "type": "uint256"
        },
        {
          "indexed": false,
          "internalType": "uint256",
          "name": "ethFeeAmount",
          "type": "uint256"
        },
        {
          "indexed": false,
          "internalType": "uint256",
          "name": "tokenFeeAmount",
          "type": "uint256"
        },
        {
          "indexed": false,
          "internalType": "address",
          "name": "sender",
          "type": "address"
        }
      ],
      "name": "CrumbsWereSwept",
      "type": "event"
    },
    {
      "anonymous": false,
      "inputs": [
        {
          "indexed": true,
          "internalType": "uint256",
          "name": "projectId",
          "type": "uint256"
        },
        {
          "indexed": true,
          "internalType": "uint256",
          "name": "lpId",
          "type": "uint256"
        },
        {
          "indexed": false,
          "internalType": "uint256",
          "name": "projectBalance",
          "type": "uint256"
        },
        {
          "indexed": false,
          "internalType": "uint256",
          "name": "ethBalance",
          "type": "uint256"
        },
        {
          "indexed": false,
          "internalType": "uint256",
          "name": "tokenBalance",
          "type": "uint256"
        },
        {
          "indexed": false,
          "internalType": "address",
          "name": "sender",
          "type": "address"
        }
      ],
      "name": "LunchWasServed",
      "type": "event"
    },
    {
      "inputs": [],
      "name": "codeOrigin",
      "outputs": [
        {
          "internalType": "address",
          "name": "",
          "type": "address"
        }
      ],
      "stateMutability": "view",
      "type": "function"
    },
    {
      "inputs": [],
      "name": "controller",
      "outputs": [
        {
          "internalType": "contract IJBController3_1",
          "name": "",
          "type": "address"
        }
      ],
      "stateMutability": "view",
      "type": "function"
    },
    {
      "inputs": [
        {
          "internalType": "uint256",
          "name": "",
          "type": "uint256"
        }
      ],
      "name": "lpIdOf",
      "outputs": [
        {
          "internalType": "uint256",
          "name": "",
          "type": "uint256"
        }
      ],
      "stateMutability": "view",
      "type": "function"
    },
    {
      "inputs": [],
      "name": "lpSupplyMultiplier",
      "outputs": [
        {
          "internalType": "uint256",
          "name": "",
          "type": "uint256"
        }
      ],
      "stateMutability": "view",
      "type": "function"
    },
    {
      "inputs": [
        {
          "internalType": "uint256",
          "name": "",
          "type": "uint256"
        }
      ],
      "name": "lunchCanBeServedFor",
      "outputs": [
        {
          "internalType": "bool",
          "name": "",
          "type": "bool"
        }
      ],
      "stateMutability": "view",
      "type": "function"
    },
    {
      "inputs": [
        {
          "internalType": "uint256",
          "name": "",
          "type": "uint256"
        }
      ],
      "name": "lunchHasBeenServedFor",
      "outputs": [
        {
          "internalType": "bool",
          "name": "",
          "type": "bool"
        }
      ],
      "stateMutability": "view",
      "type": "function"
    },
    {
      "inputs": [
        {
          "internalType": "address",
          "name": "_operator",
          "type": "address"
        },
        {
          "internalType": "address",
          "name": "_from",
          "type": "address"
        },
        {
          "internalType": "uint256",
          "name": "_tokenId",
          "type": "uint256"
        },
        {
          "internalType": "bytes",
          "name": "_data",
          "type": "bytes"
        }
      ],
      "name": "onERC721Received",
      "outputs": [
        {
          "internalType": "bytes4",
          "name": "",
          "type": "bytes4"
        }
      ],
      "stateMutability": "nonpayable",
      "type": "function"
    },
    {
      "inputs": [],
      "name": "positionManager",
      "outputs": [
        {
          "internalType": "contract INonfungiblePositionManager",
          "name": "",
          "type": "address"
        }
      ],
      "stateMutability": "view",
      "type": "function"
    },
    {
      "inputs": [
        {
          "internalType": "uint256",
          "name": "_projectId",
          "type": "uint256"
        }
      ],
      "name": "serveLunch",
      "outputs": [],
      "stateMutability": "nonpayable",
      "type": "function"
    },
    {
      "inputs": [
        {
          "internalType": "uint256",
          "name": "_lpSupplyMultiplier",
          "type": "uint256"
        },
        {
          "components": [
            {
              "internalType": "bool",
              "name": "preferClaimed",
              "type": "bool"
            },
            {
              "internalType": "bool",
              "name": "preferAddToBalance",
              "type": "bool"
            },
            {
              "internalType": "uint256",
              "name": "percent",
              "type": "uint256"
            },
            {
              "internalType": "uint256",
              "name": "projectId",
              "type": "uint256"
            },
            {
              "internalType": "address payable",
              "name": "beneficiary",
              "type": "address"
            },
            {
              "internalType": "uint256",
              "name": "lockedUntil",
              "type": "uint256"
            },
            {
              "internalType": "contract IJBSplitAllocator",
              "name": "allocator",
              "type": "address"
            }
          ],
          "internalType": "struct JBSplit[]",
          "name": "__splits",
          "type": "tuple[]"
        }
      ],
      "name": "setTheTable",
      "outputs": [],
      "stateMutability": "nonpayable",
      "type": "function"
    },
    {
      "inputs": [],
      "name": "splits",
      "outputs": [
        {
          "components": [
            {
              "internalType": "bool",
              "name": "preferClaimed",
              "type": "bool"
            },
            {
              "internalType": "bool",
              "name": "preferAddToBalance",
              "type": "bool"
            },
            {
              "internalType": "uint256",
              "name": "percent",
              "type": "uint256"
            },
            {
              "internalType": "uint256",
              "name": "projectId",
              "type": "uint256"
            },
            {
              "internalType": "address payable",
              "name": "beneficiary",
              "type": "address"
            },
            {
              "internalType": "uint256",
              "name": "lockedUntil",
              "type": "uint256"
            },
            {
              "internalType": "contract IJBSplitAllocator",
              "name": "allocator",
              "type": "address"
            }
          ],
          "internalType": "struct JBSplit[]",
          "name": "",
          "type": "tuple[]"
        }
      ],
      "stateMutability": "view",
      "type": "function"
    },
    {
      "inputs": [
        {
          "internalType": "uint256",
          "name": "_projectId",
          "type": "uint256"
        }
      ],
      "name": "sweepCrumbs",
      "outputs": [],
      "stateMutability": "nonpayable",
      "type": "function"
    }
  ],
  "bytecode": {
    "object": "0x60a06040523480156200001157600080fd5b506040516200225538038062002255833981016040819052620000349162000094565b600580546001600160a01b039485166001600160a01b03199182161790915560068054938516938216939093179092556000805491909316911617905530608052620000e8565b6001600160a01b03811681146200009157600080fd5b50565b600080600060608486031215620000aa57600080fd5b8351620000b7816200007b565b6020850151909350620000ca816200007b565b6040850151909250620000dd816200007b565b809150509250925092565b60805161214a6200010b6000396000818161011c0152611672015261214a6000f3fe608060405234801561001057600080fd5b50600436106100b35760003560e01c80634a3fefa8116100715780634a3fefa8146101a75780636cbdec7d146101ca578063791b98bc146101df5780638e3250a7146101f2578063cdb7422e14610205578063f77c47911461021857600080fd5b806278c931146100b8578063150b7a02146100eb5780631d153ca414610117578063235d40461461015657806341cb02421461016b57806345be951714610174575b600080fd5b6100d86100c6366004611875565b60076020526000908152604090205481565b6040519081526020015b60405180910390f35b6100fe6100f93660046118a6565b61022b565b6040516001600160e01b031990911681526020016100e2565b61013e7f000000000000000000000000000000000000000000000000000000000000000081565b6040516001600160a01b0390911681526020016100e2565b610169610164366004611875565b61031c565b005b6100d860045481565b610197610182366004611875565b60026020526000908152604090205460ff1681565b60405190151581526020016100e2565b6101976101b5366004611875565b60036020526000908152604090205460ff1681565b6101d26107f2565b6040516100e2919061199e565b60065461013e906001600160a01b031681565b610169610200366004611875565b6108aa565b6101696102133660046119e7565b611668565b60055461013e906001600160a01b031681565b600554604080516322de550f60e21b815290516000926001600160a01b031691638b79543c9160048083019260209291908290030181865afa158015610275573d6000803e3d6000fd5b505050506040513d601f19601f820116820180604052508101906102999190611a66565b6001600160a01b0316336001600160a01b0316146102ca57604051633bcaa88960e11b815260040160405180910390fd5b600084815260036020526040808220805460ff191660011790555185917f2310ecde93c870a0a8b4c38a6cfce89b280f29801d367f466ae58768d41c336091a250630a85bd0160e11b95945050505050565b600081815260076020908152604091829020546006548351608081018552828152309381019384526001600160801b0381860181815260608301828152965163fc6f786560e01b81529251600484015294516001600160a01b03908116602484015294518116604483015294519094166064850152909291169063fc6f78659060840160408051808303816000875af11580156103bd573d6000803e3d6000fd5b505050506040513d601f19601f820116820180604052508101906103e19190611a8a565b50506000546040516370a0823160e01b81523060048201526001600160a01b0390911690632e1a7d4d9082906370a0823190602401602060405180830381865afa158015610433573d6000803e3d6000fd5b505050506040513d601f19601f820116820180604052508101906104579190611aae565b6040518263ffffffff1660e01b815260040161047591815260200190565b600060405180830381600087803b15801561048f57600080fd5b505af11580156104a3573d6000803e3d6000fd5b505050506000600560009054906101000a90046001600160a01b03166001600160a01b031663c41c2f246040518163ffffffff1660e01b8152600401602060405180830381865afa1580156104fc573d6000803e3d6000fd5b505050506040513d601f19601f820116820180604052508101906105209190611a66565b604051630862026560e41b81526004810185905261eeee60248201526001600160a01b039190911690638620265090604401602060405180830381865afa15801561056f573d6000803e3d6000fd5b505050506040513d601f19601f820116820180604052508101906105939190611a66565b90506000479050816001600160a01b0316630cf8e85847868461eeee603160f81b6040516020016105c691815260200190565b6040516020818303038152906040526040518663ffffffff1660e01b81526004016105f49493929190611b0d565b6000604051808303818588803b15801561060d57600080fd5b505af1158015610621573d6000803e3d6000fd5b50505050506000600560009054906101000a90046001600160a01b03166001600160a01b031663619306306040518163ffffffff1660e01b8152600401602060405180830381865afa15801561067b573d6000803e3d6000fd5b505050506040513d601f19601f8201168201806040525081019061069f9190611a66565b604051627eeac760e11b8152306004820152602481018790526001600160a01b03919091169062fdd58e90604401602060405180830381865afa1580156106ea573d6000803e3d6000fd5b505050506040513d601f19601f8201168201806040525081019061070e9190611aae565b600554604051631665bc0f60e01b8152306004820152602481018890526044810183905260a06064820152601060a48201526f6d6d6d6d6d2c2064656c6963696f757360801b60c4820152600160848201529192506001600160a01b031690631665bc0f9060e401600060405180830381600087803b15801561079057600080fd5b505af11580156107a4573d6000803e3d6000fd5b50506040805185815260208101859052338183015290518793508892507fe9891edc01eb9bebea32ee795181b21c41ad1ffa99a3eb076079dc73bc0efe119181900360600190a35050505050565b60606001805480602002602001604051908101604052809291908181526020016000905b828210156108a15760008481526020908190206040805160e08101825260068602909201805460ff8082161515855261010090910416151583850152600180820154928401929092526002810154606084015260038101546001600160a01b039081166080850152600482015460a08501526005909101541660c08301529083529092019101610816565b50505050905090565b60008181526002602052604090205460ff16156108da576040516315e799c360e31b815260040160405180910390fd5b60008181526003602052604090205460ff1661090957604051635556f88f60e01b815260040160405180910390fd5b600554604080516331070bc960e21b815290516000926001600160a01b03169163c41c2f249160048083019260209291908290030181865afa158015610953573d6000803e3d6000fd5b505050506040513d601f19601f820116820180604052508101906109779190611a66565b604051630862026560e41b81526004810184905261eeee60248201526001600160a01b039190911690638620265090604401602060405180830381865afa1580156109c6573d6000803e3d6000fd5b505050506040513d601f19601f820116820180604052508101906109ea9190611a66565b90506000816001600160a01b031663975057e76040518163ffffffff1660e01b8152600401602060405180830381865afa158015610a2c573d6000803e3d6000fd5b505050506040513d601f19601f82011682018060405250810190610a509190611a66565b604051627eeac760e11b81526001600160a01b03848116600483015260248201869052919091169062fdd58e90604401602060405180830381865afa158015610a9d573d6000803e3d6000fd5b505050506040513d601f19601f82011682018060405250810190610ac19190611aae565b90506000600560009054906101000a90046001600160a01b03166001600160a01b031663619306306040518163ffffffff1660e01b8152600401602060405180830381865afa158015610b18573d6000803e3d6000fd5b505050506040513d601f19601f82011682018060405250810190610b3c9190611a66565b6001600160a01b031663ea78803f856040518263ffffffff1660e01b8152600401610b6991815260200190565b602060405180830381865afa158015610b86573d6000803e3d6000fd5b505050506040513d601f19601f82011682018060405250810190610baa9190611a66565b604051631982d67960e01b815261eeee60048201529091506000906001600160a01b03851690631982d67990602401602060405180830381865afa158015610bf6573d6000803e3d6000fd5b505050506040513d601f19601f82011682018060405250810190610c1a9190611aae565b60408051600180825281830190925291925060009190816020015b610c806040518060c0016040528060006001600160a01b0316815260200160006001600160a01b03168152602001600081526020016000815260200160008152602001600081525090565b815260200190600190039081610c355790505090506040518060c00160405280866001600160a01b0316815260200161eeee6001600160a01b0316815260200185815260200183815260200160008152602001600081525081600081518110610ceb57610ceb611b68565b60209081029190910101526001805490600090610d09908390611b94565b67ffffffffffffffff811115610d2157610d21611b52565b604051908082528060200260200182016040528015610d5a57816020015b610d47611839565b815260200190600190039081610d3f5790505b509050610d65611839565b6000805b84811015610e3a5760018181548110610d8457610d84611b68565b60009182526020918290206040805160e0810182526006909302909101805460ff80821615158552610100909104161515938301939093526001830154908201526002820154606082015260038201546001600160a01b039081166080830152600483015460a083015260059092015490911660c082015284519093508390859083908110610e1557610e15611b68565b6020026020010181905250826040015182610e309190611b94565b9150600101610d69565b506040805160e08101825260008082526020820152908101610e6083633b9aca00611bad565b815260200160008152602001306001600160a01b031681526020016000815260200160006001600160a01b0316815250915081838581518110610ea557610ea5611b68565b6020908102919091010152604080516001808252818301909252600091816020015b604080518082019091526000815260606020820152815260200190600190039081610ec75790505090506040518060400160405280600181526020018581525081600081518110610f1a57610f1a611b68565b6020026020010181905250600560009054906101000a90046001600160a01b03166001600160a01b031663badbdf288c604051806080016040528060008152602001600081526020016000815260200160006001600160a01b03168152506040518061024001604052806040518060600160405280600015158152602001600015158152602001600015158152508152602001600081526020016127108152602001612710815260200160011515815260200160001515815260200160001515815260200160001515815260200160011515815260200160001515815260200160001515815260200160001515815260200160001515815260200160001515815260200160001515815260200160001515815260200160006001600160a01b0316815260200160008152506000868c6040518763ffffffff1660e01b815260040161106a96959493929190611cd4565b6020604051808303816000875af1158015611089573d6000803e3d6000fd5b505050506040513d601f19601f820116820180604052508101906110ad9190611aae565b505050505050506000600454600560009054906101000a90046001600160a01b03166001600160a01b031663619306306040518163ffffffff1660e01b8152600401602060405180830381865afa15801561110c573d6000803e3d6000fd5b505050506040513d601f19601f820116820180604052508101906111309190611a66565b6001600160a01b03166375b0d9cd886040518263ffffffff1660e01b815260040161115d91815260200190565b602060405180830381865afa15801561117a573d6000803e3d6000fd5b505050506040513d601f19601f8201168201806040525081019061119e9190611aae565b6111a89190611ebb565b600554604051638ae9c07b60e01b8152600481018990526024810183905230604482015260c06064820152601560c482015274092dccee4cac8d2cadce8e640ccdee440d8eadcc6d605b1b60e482015260016084820152600060a48201529192506001600160a01b031690638ae9c07b90610104016020604051808303816000875af115801561123c573d6000803e3d6000fd5b505050506040513d601f19601f820116820180604052508101906112609190611aae565b50604080516020810182526000815290516301290c1760e61b81526001600160a01b03871691634a4305c0916112a4918a918991889161eeee918491600401611ed2565b6020604051808303816000875af11580156112c3573d6000803e3d6000fd5b505050506040513d601f19601f820116820180604052508101906112e79190611aae565b506000805460408051630d0e30db60e41b8152905147936001600160a01b039093169263d0e30db09285926004808301939282900301818588803b15801561132e57600080fd5b505af1158015611342573d6000803e3d6000fd5b505060065460405163095ea7b360e01b81526001600160a01b03918216600482015260248101879052908816935063095ea7b3925060440190506020604051808303816000875af115801561139b573d6000803e3d6000fd5b505050506040513d601f19601f820116820180604052508101906113bf9190611f25565b506000546006546040516370a0823160e01b81523060048201526001600160a01b039283169263095ea7b392169083906370a0823190602401602060405180830381865afa158015611415573d6000803e3d6000fd5b505050506040513d601f19601f820116820180604052508101906114399190611aae565b6040516001600160e01b031960e085901b1681526001600160a01b03909216600483015260248201526044016020604051808303816000875af1158015611484573d6000803e3d6000fd5b505050506040513d601f19601f820116820180604052508101906114a89190611f25565b5060065460408051610160810182526001600160a01b0387811682526000805482166020840181905261271084860152620d89e7196060850152620d89e8608085015260a0840188905293516370a0823160e01b8152306004820152909491909116926388316456929160c0830191906370a0823190602401602060405180830381865afa15801561153e573d6000803e3d6000fd5b505050506040513d601f19601f820116820180604052508101906115629190611aae565b815260006020820181905260408201523060608201526080016115874261ea60611b94565b8152506040518263ffffffff1660e01b81526004016115a69190611f42565b6080604051808303816000875af11580156115c5573d6000803e3d6000fd5b505050506040513d601f19601f820116820180604052508101906115e99190612006565b50505060008981526007602090815260408083208490556002825291829020805460ff191660011790558151898152908101859052908101859052336060820152909150819089907f98119214c22a703530adfc3ac49c6bed3ccedf37ca3c9832e60d2c17b82cc87f9060800160405180910390a35050505050505050565b6001600160a01b037f000000000000000000000000000000000000000000000000000000000000000016300361169d57600080fd5b6005546001600160a01b0316156116b357600080fd5b600083116116d457604051633bcaa88960e11b815260040160405180910390fd5b6004839055806116e2611839565b60005b82811015611831578484828181106116ff576116ff611b68565b905060e00201803603810190611715919061206b565b91506040518060e00160405280836000015115158152602001836020015115158152602001836040015181526020018360600151815260200183608001516001600160a01b031681526020018360a0015181526020018360c001516001600160a01b03168152506001828154811061178f5761178f611b68565b6000918252602091829020835160069092020180549284015115156101000261ff00199215159290921661ffff199093169290921717815560408201516001808301919091556060830151600283015560808301516003830180546001600160a01b039283166001600160a01b03199182161790915560a0850151600485015560c09094015160059093018054939091169290931691909117909155016116e5565b505050505050565b6040805160e081018252600080825260208201819052918101829052606081018290526080810182905260a0810182905260c081019190915290565b60006020828403121561188757600080fd5b5035919050565b6001600160a01b03811681146118a357600080fd5b50565b6000806000806000608086880312156118be57600080fd5b85356118c98161188e565b945060208601356118d98161188e565b935060408601359250606086013567ffffffffffffffff808211156118fd57600080fd5b818801915088601f83011261191157600080fd5b81358181111561192057600080fd5b89602082850101111561193257600080fd5b9699959850939650602001949392505050565b80511515825260208082015115159083015260408082015190830152606080820151908301526080808201516001600160a01b039081169184019190915260a0808301519084015260c091820151169082015260e00190565b6020808252825182820181905260009190848201906040850190845b818110156119db576119cd838551611945565b9385019392506001016119ba565b50909695505050505050565b6000806000604084860312156119fc57600080fd5b83359250602084013567ffffffffffffffff80821115611a1b57600080fd5b818601915086601f830112611a2f57600080fd5b813581811115611a3e57600080fd5b87602060e083028501011115611a5357600080fd5b6020830194508093505050509250925092565b600060208284031215611a7857600080fd5b8151611a838161188e565b9392505050565b60008060408385031215611a9d57600080fd5b505080516020909101519092909150565b600060208284031215611ac057600080fd5b5051919050565b6000815180845260005b81811015611aed57602081850181015186830182015201611ad1565b506000602082860101526020601f19601f83011685010191505092915050565b84815283602082015260018060a01b038316604082015260a06060820152600060a082015260c060808201526000611b4860c0830184611ac7565b9695505050505050565b634e487b7160e01b600052604160045260246000fd5b634e487b7160e01b600052603260045260246000fd5b634e487b7160e01b600052601160045260246000fd5b80820180821115611ba757611ba7611b7e565b92915050565b81810381811115611ba757611ba7611b7e565b600081518084526020808501808196508360051b810191508286016000805b86811015611c4b578385038a528251805186528601516040878701819052815190870181905290870190606087019084905b80821015611c3657611c24838551611945565b92508984019350600182019150611c11565b50509a87019a95505091850191600101611bdf565b509298975050505050505050565b600081518084526020808501945080840160005b83811015611cc957815180516001600160a01b03908116895284820151168489015260408082015190890152606080820151908901526080808201519089015260a0908101519088015260c09096019590820190600101611c6d565b509495945050505050565b60006103a088835287516020840152602088015160408401526040880151606084015260018060a01b036060890151166080840152611d3160a0840188518051151582526020808201511515908301526040908101511515910152565b6020870151610100818186015260408901519150610120828187015260608a01519250610140838188015260808b01519350610160611d738189018615159052565b60a08c01519450610180611d8a818a018715159052565b60c08d015195506101a0611da1818b018815159052565b60e08e015196506101c0611db8818c018915159052565b958e015196506101e095611dcf8b88018915159052565b948e0151965061020094611de68b87018915159052565b938e0151965061022093611dfd8b86018915159052565b928e015115156102408b0152908d015115156102608a01528c015115156102808901528b015115156102a0880152918a015115156102c08701528901516001600160a01b03166102e08601528801516103008501525061032083018690526103408301819052611e6f81840186611bc0565b9050828103610360840152611e848185611c59565b838103610380850152600e81526d0a0e4cae0e0d2dcce40d8eadcc6d60931b60208201529050604081019998505050505050505050565b8082028115828204841417611ba757611ba7611b7e565b86815285602082015284604082015260018060a01b038416606082015282608082015260c060a08201526000611f0b60c0830184611ac7565b98975050505050505050565b80151581146118a357600080fd5b600060208284031215611f3757600080fd5b8151611a8381611f17565b81516001600160a01b0316815261016081016020830151611f6e60208401826001600160a01b03169052565b506040830151611f85604084018262ffffff169052565b506060830151611f9a606084018260020b9052565b506080830151611faf608084018260020b9052565b5060a083015160a083015260c083015160c083015260e083015160e083015261010080840151818401525061012080840151611ff5828501826001600160a01b03169052565b505061014092830151919092015290565b6000806000806080858703121561201c57600080fd5b8451935060208501516001600160801b038116811461203a57600080fd5b6040860151606090960151949790965092505050565b803561205b81611f17565b919050565b803561205b8161188e565b600060e0828403121561207d57600080fd5b60405160e0810181811067ffffffffffffffff821117156120ae57634e487b7160e01b600052604160045260246000fd5b6040526120ba83612050565b81526120c860208401612050565b602082015260408301356040820152606083013560608201526120ed60808401612060565b608082015260a083013560a082015261210860c08401612060565b60c0820152939250505056fea264697066735822122031f8d9d94ca3e8775887b7eeb4f16ae5fa045dce8ef60172050cbacb91e6c4de64736f6c63430008110033",
    "linkReferences": {}
  },
  "methodIdentifiers": {
    "codeOrigin()": "1d153ca4",
    "controller()": "f77c4791",
    "lpIdOf(uint256)": "0078c931",
    "lpSupplyMultiplier()": "41cb0242",
    "lunchCanBeServedFor(uint256)": "4a3fefa8",
    "lunchHasBeenServedFor(uint256)": "45be9517",
    "onERC721Received(address,address,uint256,bytes)": "150b7a02",
    "positionManager()": "791b98bc",
    "serveLunch(uint256)": "8e3250a7",
    "setTheTable(uint256,(bool,bool,uint256,uint256,address,uint256,address)[])": "cdb7422e",
    "splits()": "6cbdec7d",
    "sweepCrumbs(uint256)": "235d4046"
  },
  "id": 98
}