{
  "abi": [
    {
      "inputs": [
        {
          "internalType": "contract IJBController3_1",
          "name": "_controller",
          "type": "address"
        },
        {
          "internalType": "contract INonfungiblePositionManager",
          "name": "_positionManager",
          "type": "address"
        },
        {
          "internalType": "contract IWETH9",
          "name": "__weth",
          "type": "address"
        }
      ],
      "stateMutability": "nonpayable",
      "type": "constructor"
    },
    {
      "inputs": [],
      "name": "LUNCH_ALREADY_SERVED",
      "type": "error"
    },
    {
      "inputs": [],
      "name": "LUNCH_CANT_BE_SERVED_YET",
      "type": "error"
    },
    {
      "inputs": [],
      "name": "YUCK",
      "type": "error"
    },
    {
      "anonymous": false,
      "inputs": [
        {
          "indexed": false,
          "internalType": "uint256",
          "name": "projectId",
          "type": "uint256"
        }
      ],
      "name": "BluntHasBeenPassed",
      "type": "event"
    },
    {
      "anonymous": false,
      "inputs": [
        {
          "indexed": false,
          "internalType": "uint256",
          "name": "projectId",
          "type": "uint256"
        },
        {
          "indexed": false,
          "internalType": "uint256",
          "name": "lpId",
          "type": "uint256"
        },
        {
          "indexed": false,
          "internalType": "uint256",
          "name": "ethFeeAmount",
          "type": "uint256"
        },
        {
          "indexed": false,
          "internalType": "uint256",
          "name": "tokenFeeAmount",
          "type": "uint256"
        },
        {
          "indexed": false,
          "internalType": "address",
          "name": "sender",
          "type": "address"
        }
      ],
      "name": "CrumbsWereSwept",
      "type": "event"
    },
    {
      "anonymous": false,
      "inputs": [
        {
          "indexed": false,
          "internalType": "uint256",
          "name": "projectId",
          "type": "uint256"
        },
        {
          "indexed": false,
          "internalType": "uint256",
          "name": "lpId",
          "type": "uint256"
        },
        {
          "indexed": false,
          "internalType": "uint256",
          "name": "projectBalance",
          "type": "uint256"
        },
        {
          "indexed": false,
          "internalType": "uint256",
          "name": "tokensToMint",
          "type": "uint256"
        },
        {
          "indexed": false,
          "internalType": "address",
          "name": "sender",
          "type": "address"
        }
      ],
      "name": "LunchWasServed",
      "type": "event"
    },
    {
      "inputs": [],
      "name": "codeOrigin",
      "outputs": [
        {
          "internalType": "address",
          "name": "",
          "type": "address"
        }
      ],
      "stateMutability": "view",
      "type": "function"
    },
    {
      "inputs": [
        {
          "internalType": "address",
          "name": "_operator",
          "type": "address"
        },
        {
          "internalType": "address",
          "name": "_from",
          "type": "address"
        },
        {
          "internalType": "uint256",
          "name": "_tokenId",
          "type": "uint256"
        },
        {
          "internalType": "bytes",
          "name": "_data",
          "type": "bytes"
        }
      ],
      "name": "onERC721Received",
      "outputs": [
        {
          "internalType": "bytes4",
          "name": "",
          "type": "bytes4"
        }
      ],
      "stateMutability": "nonpayable",
      "type": "function"
    },
    {
      "inputs": [
        {
          "internalType": "uint256",
          "name": "_projectId",
          "type": "uint256"
        }
      ],
      "name": "serveLunch",
      "outputs": [],
      "stateMutability": "nonpayable",
      "type": "function"
    },
    {
      "inputs": [
        {
          "internalType": "uint256",
          "name": "_lpSupplyMultiplier",
          "type": "uint256"
        }
      ],
      "name": "setTheTable",
      "outputs": [],
      "stateMutability": "nonpayable",
      "type": "function"
    },
    {
      "inputs": [
        {
          "internalType": "uint256",
          "name": "_projectId",
          "type": "uint256"
        }
      ],
      "name": "sweepCrumbs",
      "outputs": [],
      "stateMutability": "nonpayable",
      "type": "function"
    }
  ],
  "bytecode": {
    "object": "0x60806040523480156200001157600080fd5b5060405162001b9238038062001b9283398101604081905262000034916200009d565b600580546001600160a01b039485166001600160a01b03199182161790915560068054938516938216939093179092556000805491909316908216179091556001805490911630179055620000f1565b6001600160a01b03811681146200009a57600080fd5b50565b600080600060608486031215620000b357600080fd5b8351620000c08162000084565b6020850151909350620000d38162000084565b6040850151909250620000e68162000084565b809150509250925092565b611a9180620001016000396000f3fe608060405234801561001057600080fd5b50600436106100575760003560e01c8063150b7a021461005c5780631d153ca41461008d578063235d4046146100b85780638e3250a7146100cd578063ec462704146100e0575b600080fd5b61006f61006a3660046113c8565b6100f3565b6040516001600160e01b031990911681526020015b60405180910390f35b6001546100a0906001600160a01b031681565b6040516001600160a01b039091168152602001610084565b6100cb6100c6366004611467565b6101f7565b005b6100cb6100db366004611467565b6106d9565b6100cb6100ee366004611467565b61135d565b600554604080516322de550f60e21b815290516000926001600160a01b031691638b79543c9160048083019260209291908290030181865afa15801561013d573d6000803e3d6000fd5b505050506040513d601f19601f820116820180604052508101906101619190611480565b6001600160a01b0316336001600160a01b03161461019257604051633bcaa88960e11b815260040160405180910390fd5b60008481526003602052604090819020805460ff19166001179055517f2310ecde93c870a0a8b4c38a6cfce89b280f29801d367f466ae58768d41c3360906101dd9086815260200190565b60405180910390a150630a85bd0160e11b95945050505050565b600081815260076020908152604091829020546006548351608081018552828152309381019384526001600160801b0381860181815260608301828152965163fc6f786560e01b81529251600484015294516001600160a01b03908116602484015294518116604483015294519094166064850152909291169063fc6f78659060840160408051808303816000875af1158015610298573d6000803e3d6000fd5b505050506040513d601f19601f820116820180604052508101906102bc91906114a4565b50506000546040516370a0823160e01b81523060048201526001600160a01b0390911690632e1a7d4d9082906370a0823190602401602060405180830381865afa15801561030e573d6000803e3d6000fd5b505050506040513d601f19601f8201168201806040525081019061033291906114c8565b6040518263ffffffff1660e01b815260040161035091815260200190565b600060405180830381600087803b15801561036a57600080fd5b505af115801561037e573d6000803e3d6000fd5b505050506000600560009054906101000a90046001600160a01b03166001600160a01b031663c41c2f246040518163ffffffff1660e01b8152600401602060405180830381865afa1580156103d7573d6000803e3d6000fd5b505050506040513d601f19601f820116820180604052508101906103fb9190611480565b604051630862026560e41b81526004810185905261eeee60248201526001600160a01b039190911690638620265090604401602060405180830381865afa15801561044a573d6000803e3d6000fd5b505050506040513d601f19601f8201168201806040525081019061046e9190611480565b90506000479050816001600160a01b0316630cf8e85847868461eeee603160f81b6040516020016104a191815260200190565b6040516020818303038152906040526040518663ffffffff1660e01b81526004016104cf9493929190611527565b6000604051808303818588803b1580156104e857600080fd5b505af11580156104fc573d6000803e3d6000fd5b50505050506000600560009054906101000a90046001600160a01b03166001600160a01b031663619306306040518163ffffffff1660e01b8152600401602060405180830381865afa158015610556573d6000803e3d6000fd5b505050506040513d601f19601f8201168201806040525081019061057a9190611480565b604051627eeac760e11b8152306004820152602481018790526001600160a01b03919091169062fdd58e90604401602060405180830381865afa1580156105c5573d6000803e3d6000fd5b505050506040513d601f19601f820116820180604052508101906105e991906114c8565b600554604051631665bc0f60e01b8152306004820152602481018890526044810183905260a06064820152601060a48201526f6d6d6d6d6d2c2064656c6963696f757360801b60c4820152600160848201529192506001600160a01b031690631665bc0f9060e401600060405180830381600087803b15801561066b57600080fd5b505af115801561067f573d6000803e3d6000fd5b50506040805188815260208101889052908101859052606081018490523360808201527fe9891edc01eb9bebea32ee795181b21c41ad1ffa99a3eb076079dc73bc0efe11925060a001905060405180910390a15050505050565b60008181526002602052604090205460ff1615610709576040516315e799c360e31b815260040160405180910390fd5b60008181526003602052604090205460ff1661073857604051635556f88f60e01b815260040160405180910390fd5b600554604080516331070bc960e21b815290516000926001600160a01b03169163c41c2f249160048083019260209291908290030181865afa158015610782573d6000803e3d6000fd5b505050506040513d601f19601f820116820180604052508101906107a69190611480565b604051630862026560e41b81526004810184905261eeee60248201526001600160a01b039190911690638620265090604401602060405180830381865afa1580156107f5573d6000803e3d6000fd5b505050506040513d601f19601f820116820180604052508101906108199190611480565b90506000816001600160a01b031663975057e76040518163ffffffff1660e01b8152600401602060405180830381865afa15801561085b573d6000803e3d6000fd5b505050506040513d601f19601f8201168201806040525081019061087f9190611480565b604051627eeac760e11b81526001600160a01b03848116600483015260248201869052919091169062fdd58e90604401602060405180830381865afa1580156108cc573d6000803e3d6000fd5b505050506040513d601f19601f820116820180604052508101906108f091906114c8565b90506000600560009054906101000a90046001600160a01b03166001600160a01b031663619306306040518163ffffffff1660e01b8152600401602060405180830381865afa158015610947573d6000803e3d6000fd5b505050506040513d601f19601f8201168201806040525081019061096b9190611480565b6001600160a01b031663ea78803f856040518263ffffffff1660e01b815260040161099891815260200190565b602060405180830381865afa1580156109b5573d6000803e3d6000fd5b505050506040513d601f19601f820116820180604052508101906109d99190611480565b604051631982d67960e01b815261eeee60048201529091506000906001600160a01b03851690631982d67990602401602060405180830381865afa158015610a25573d6000803e3d6000fd5b505050506040513d601f19601f82011682018060405250810190610a4991906114c8565b60408051600180825281830190925291925060009190816020015b610aaf6040518060c0016040528060006001600160a01b0316815260200160006001600160a01b03168152602001600081526020016000815260200160008152602001600081525090565b815260200190600190039081610a645790505090506040518060c00160405280866001600160a01b0316815260200161eeee6001600160a01b0316815260200185815260200183815260200160008152602001600081525081600081518110610b1a57610b1a61156c565b6020908102919091018101919091526040805160e0810182526000808252928101839052633b9aca00818301526060810183905230608082015260a0810183905260c0810183905281516001808252818401909352909291816020015b6040805160e08101825260008082526020808301829052928201819052606082018190526080820181905260a0820181905260c08201528252600019909201910181610b775790505090508181600081518110610bd657610bd661156c565b6020908102919091010152604080516001808252818301909252600091816020015b604080518082019091526000815260606020820152815260200190600190039081610bf85790505090506040518060400160405280600181526020018381525081600081518110610c4b57610c4b61156c565b60209081029190910181019190915260055460408051608080820183526000808352828601819052828401819052606080840182905284516102a081018652610240810183815261026082018490526102808201849052815296870182905261271087860181905290870152600191860182905260a0860181905260c0860181905260e0860181905261010086019190915261012085018190526101408501819052610160850181905261018085018190526101a085018190526101c085018190526101e0850181905261020085018190526102208501819052915163175b7be560e31b81526001600160a01b039093169363badbdf2893610d57938f93929188908c906004016116dd565b6020604051808303816000875af1158015610d76573d6000803e3d6000fd5b505050506040513d601f19601f82011682018060405250810190610d9a91906114c8565b506000600454600560009054906101000a90046001600160a01b03166001600160a01b031663619306306040518163ffffffff1660e01b8152600401602060405180830381865afa158015610df3573d6000803e3d6000fd5b505050506040513d601f19601f82011682018060405250810190610e179190611480565b6001600160a01b03166375b0d9cd8c6040518263ffffffff1660e01b8152600401610e4491815260200190565b602060405180830381865afa158015610e61573d6000803e3d6000fd5b505050506040513d601f19601f82011682018060405250810190610e8591906114c8565b610e8f91906118b6565b600554604051638ae9c07b60e01b8152600481018d90526024810183905230604482015260c06064820152601560c482015274092dccee4cac8d2cadce8e640ccdee440d8eadcc6d605b1b60e482015260016084820152600060a48201529192506001600160a01b031690638ae9c07b90610104016020604051808303816000875af1158015610f23573d6000803e3d6000fd5b505050506040513d601f19601f82011682018060405250810190610f4791906114c8565b50604080516020810182526000815290516301290c1760e61b81526001600160a01b038b1691634a4305c091610f8b918e918d918c9161eeee9184916004016118d3565b6020604051808303816000875af1158015610faa573d6000803e3d6000fd5b505050506040513d601f19601f82011682018060405250810190610fce91906114c8565b5060008054906101000a90046001600160a01b03166001600160a01b031663d0e30db0476040518263ffffffff1660e01b81526004016000604051808303818588803b15801561101d57600080fd5b505af1158015611031573d6000803e3d6000fd5b505060065460405163095ea7b360e01b81526001600160a01b03918216600482015260248101869052908b16935063095ea7b3925060440190506020604051808303816000875af115801561108a573d6000803e3d6000fd5b505050506040513d601f19601f820116820180604052508101906110ae9190611918565b506000546006546040516370a0823160e01b81523060048201526001600160a01b039283169263095ea7b392169083906370a0823190602401602060405180830381865afa158015611104573d6000803e3d6000fd5b505050506040513d601f19601f8201168201806040525081019061112891906114c8565b6040516001600160e01b031960e085901b1681526001600160a01b03909216600483015260248201526044016020604051808303816000875af1158015611173573d6000803e3d6000fd5b505050506040513d601f19601f820116820180604052508101906111979190611918565b5060065460408051610160810182526001600160a01b038a811682526000805482166020840181905261271084860152620d89e7196060850152620d89e8608085015260a0840187905293516370a0823160e01b8152306004820152909491909116926388316456929160c0830191906370a0823190602401602060405180830381865afa15801561122d573d6000803e3d6000fd5b505050506040513d601f19601f8201168201806040525081019061125191906114c8565b815260006020820181905260408201523060608201526080016112764261ea6061193a565b8152506040518263ffffffff1660e01b8152600401611295919061194d565b6080604051808303816000875af11580156112b4573d6000803e3d6000fd5b505050506040513d601f19601f820116820180604052508101906112d89190611a11565b50505060008c81526007602090815260408083208490556002825291829020805460ff1916600117905581518e81529081018390529081018b9052606081018490523360808201529091507f367b62b98aa158792373ec28de839db8d59a730146de2731a60cc120a38fc4939060a00160405180910390a15050505050505050505050565b6001546001600160a01b0316300361137457600080fd5b6005546001600160a01b03161561138a57600080fd5b600081116113ab57604051633bcaa88960e11b815260040160405180910390fd5b600455565b6001600160a01b03811681146113c557600080fd5b50565b6000806000806000608086880312156113e057600080fd5b85356113eb816113b0565b945060208601356113fb816113b0565b935060408601359250606086013567ffffffffffffffff8082111561141f57600080fd5b818801915088601f83011261143357600080fd5b81358181111561144257600080fd5b89602082850101111561145457600080fd5b9699959850939650602001949392505050565b60006020828403121561147957600080fd5b5035919050565b60006020828403121561149257600080fd5b815161149d816113b0565b9392505050565b600080604083850312156114b757600080fd5b505080516020909101519092909150565b6000602082840312156114da57600080fd5b5051919050565b6000815180845260005b81811015611507576020818501810151868301820152016114eb565b506000602082860101526020601f19601f83011685010191505092915050565b84815283602082015260018060a01b038316604082015260a06060820152600060a082015260c06080820152600061156260c08301846114e1565b9695505050505050565b634e487b7160e01b600052603260045260246000fd5b600081518084526020808501808196508360051b810191508286016000805b86811015611654578385038a52825180518652860151604087870181905281518188018190529188019160609081890190865b8181101561163d5785518051151584528c81015115158d850152858101518685015284810151858501526080808201516001600160a01b039081169186019190915260a0808301519086015260c0918201511690840152948b019460e0909201916001016115d4565b50509c89019c9750505092860192506001016115a1565b509298975050505050505050565b600081518084526020808501945080840160005b838110156116d257815180516001600160a01b03908116895284820151168489015260408082015190890152606080820151908901526080808201519089015260a0908101519088015260c09096019590820190600101611676565b509495945050505050565b60006103a088835287516020840152602088015160408401526040880151606084015260018060a01b03606089015116608084015261173a60a0840188518051151582526020808201511515908301526040908101511515910152565b60208701516101008401526040870151610120840152606087015161014084015260808701518015156101608501525060a08701518015156101808501525060c08701518015156101a08501525060e08701518015156101c0850152506101008701518015156101e085015250610120870151801515610200850152506101408701518015156102208501525061016087015180151561024085015250610180870151801515610260850152506101a0870151801515610280850152506101c08701518015156102a0850152506101e08701518015156102c0850152506102008701516001600160a01b0381166102e085015250610220870151610300840152856103208401528061034084015261185481840186611582565b90508281036103608401526118698185611662565b838103610380850152600e81526d0a0e4cae0e0d2dcce40d8eadcc6d60931b60208201529050604081019998505050505050505050565b634e487b7160e01b600052601160045260246000fd5b80820281158282048414176118cd576118cd6118a0565b92915050565b86815285602082015284604082015260018060a01b038416606082015282608082015260c060a0820152600061190c60c08301846114e1565b98975050505050505050565b60006020828403121561192a57600080fd5b8151801515811461149d57600080fd5b808201808211156118cd576118cd6118a0565b81516001600160a01b031681526101608101602083015161197960208401826001600160a01b03169052565b506040830151611990604084018262ffffff169052565b5060608301516119a5606084018260020b9052565b5060808301516119ba608084018260020b9052565b5060a083015160a083015260c083015160c083015260e083015160e083015261010080840151818401525061012080840151611a00828501826001600160a01b03169052565b505061014092830151919092015290565b60008060008060808587031215611a2757600080fd5b8451935060208501516001600160801b0381168114611a4557600080fd5b604086015160609096015194979096509250505056fea2646970667358221220e0d09b30df85648d985ee8793e1922a61fc50a9c8147a6a35eb4c2afa627e94464736f6c63430008110033",
    "linkReferences": {}
  },
  "methodIdentifiers": {
    "codeOrigin()": "1d153ca4",
    "onERC721Received(address,address,uint256,bytes)": "150b7a02",
    "serveLunch(uint256)": "8e3250a7",
    "setTheTable(uint256)": "ec462704",
    "sweepCrumbs(uint256)": "235d4046"
  },
  "id": 98
}