{
  "abi": [
    {
      "inputs": [
        {
          "internalType": "uint256",
          "name": "_lpSupplyMultiplier",
          "type": "uint256"
        },
        {
          "internalType": "string",
          "name": "_symbol",
          "type": "string"
        },
        {
          "internalType": "string",
          "name": "_name",
          "type": "string"
        },
        {
          "internalType": "contract IJBController3_1",
          "name": "_controller",
          "type": "address"
        },
        {
          "internalType": "contract INonfungiblePositionManager",
          "name": "_positionManager",
          "type": "address"
        },
        {
          "internalType": "contract IWETH9",
          "name": "_weth",
          "type": "address"
        }
      ],
      "stateMutability": "nonpayable",
      "type": "constructor"
    },
    {
      "inputs": [],
      "name": "LUNCH_ALREADY_SERVED",
      "type": "error"
    },
    {
      "inputs": [],
      "name": "LUNCH_CANT_BE_SERVED_YET",
      "type": "error"
    },
    {
      "inputs": [],
      "name": "YUCK",
      "type": "error"
    },
    {
      "inputs": [
        {
          "internalType": "address",
          "name": "_operator",
          "type": "address"
        },
        {
          "internalType": "address",
          "name": "_from",
          "type": "address"
        },
        {
          "internalType": "uint256",
          "name": "_tokenId",
          "type": "uint256"
        },
        {
          "internalType": "bytes",
          "name": "_data",
          "type": "bytes"
        }
      ],
      "name": "onERC721Received",
      "outputs": [
        {
          "internalType": "bytes4",
          "name": "",
          "type": "bytes4"
        }
      ],
      "stateMutability": "nonpayable",
      "type": "function"
    },
    {
      "inputs": [
        {
          "internalType": "uint256",
          "name": "_projectId",
          "type": "uint256"
        }
      ],
      "name": "serveLunch",
      "outputs": [],
      "stateMutability": "nonpayable",
      "type": "function"
    },
    {
      "inputs": [
        {
          "internalType": "uint256",
          "name": "_projectId",
          "type": "uint256"
        }
      ],
      "name": "sweepCrumbs",
      "outputs": [],
      "stateMutability": "nonpayable",
      "type": "function"
    }
  ],
  "bytecode": {
    "object": "0x60806040523480156200001157600080fd5b5060405162001d9938038062001d9983398101604081905262000034916200019e565b600086116200005657604051633bcaa88960e11b815260040160405180910390fd5b60028690556005620000698682620002e2565b506006620000788582620002e2565b50600380546001600160a01b039485166001600160a01b03199182161790915560048054938516938216939093179092556007805491909316911617905550620003ae915050565b634e487b7160e01b600052604160045260246000fd5b600082601f830112620000e857600080fd5b81516001600160401b0380821115620001055762000105620000c0565b604051601f8301601f19908116603f01168101908282118183101715620001305762000130620000c0565b816040528381526020925086838588010111156200014d57600080fd5b600091505b8382101562000171578582018301518183018401529082019062000152565b600093810190920192909252949350505050565b6001600160a01b03811681146200019b57600080fd5b50565b60008060008060008060c08789031215620001b857600080fd5b865160208801519096506001600160401b0380821115620001d857600080fd5b620001e68a838b01620000d6565b96506040890151915080821115620001fd57600080fd5b506200020c89828a01620000d6565b94505060608701516200021f8162000185565b6080880151909350620002328162000185565b60a0880151909250620002458162000185565b809150509295509295509295565b600181811c908216806200026857607f821691505b6020821081036200028957634e487b7160e01b600052602260045260246000fd5b50919050565b601f821115620002dd57600081815260208120601f850160051c81016020861015620002b85750805b601f850160051c820191505b81811015620002d957828155600101620002c4565b5050505b505050565b81516001600160401b03811115620002fe57620002fe620000c0565b62000316816200030f845462000253565b846200028f565b602080601f8311600181146200034e5760008415620003355750858301515b600019600386901b1c1916600185901b178555620002d9565b600085815260208120601f198616915b828110156200037f578886015182559484019460019091019084016200035e565b50858210156200039e5787850151600019600388901b60f8161c191681555b5050505050600190811b01905550565b6119db80620003be6000396000f3fe608060405234801561001057600080fd5b50600436106100415760003560e01c8063150b7a0214610046578063235d4046146100765780638e3250a71461008b575b600080fd5b610059610054366004611243565b61009e565b6040516001600160e01b0319909116815260200160405180910390f35b6100896100843660046112e2565b61016a565b005b6100896100993660046112e2565b610607565b600354604080516322de550f60e21b815290516000926001600160a01b031691638b79543c9160048083019260209291908290030181865afa1580156100e8573d6000803e3d6000fd5b505050506040513d601f19601f8201168201806040525081019061010c91906112fb565b6001600160a01b0316336001600160a01b03161461013d57604051633bcaa88960e11b815260040160405180910390fd5b5050506000908152600160208190526040909120805460ff1916909117905550630a85bd0160e11b919050565b600480546040805160808101825260008581526008602090815290839020548252309082019081526001600160801b0382840181815260608401828152945163fc6f786560e01b815293519684019690965290516001600160a01b0390811660248401529451811660448301529151909116606482015291169063fc6f78659060840160408051808303816000875af115801561020b573d6000803e3d6000fd5b505050506040513d601f19601f8201168201806040525081019061022f919061131f565b50506007546040516370a0823160e01b81523060048201526001600160a01b0390911690632e1a7d4d9082906370a0823190602401602060405180830381865afa158015610281573d6000803e3d6000fd5b505050506040513d601f19601f820116820180604052508101906102a59190611343565b6040518263ffffffff1660e01b81526004016102c391815260200190565b600060405180830381600087803b1580156102dd57600080fd5b505af11580156102f1573d6000803e3d6000fd5b505050506000600360009054906101000a90046001600160a01b03166001600160a01b031663c41c2f246040518163ffffffff1660e01b8152600401602060405180830381865afa15801561034a573d6000803e3d6000fd5b505050506040513d601f19601f8201168201806040525081019061036e91906112fb565b604051630862026560e41b81526004810184905261eeee60248201526001600160a01b039190911690638620265090604401602060405180830381865afa1580156103bd573d6000803e3d6000fd5b505050506040513d601f19601f820116820180604052508101906103e191906112fb565b9050806001600160a01b0316630cf8e85847844761eeee603160f81b60405160200161040f91815260200190565b6040516020818303038152906040526040518663ffffffff1660e01b815260040161043d94939291906113a2565b6000604051808303818588803b15801561045657600080fd5b505af115801561046a573d6000803e3d6000fd5b505060035460408051630619306360e41b815290516001600160a01b039092169450631665bc0f93503092508691859163619306309160048083019260209291908290030181865afa1580156104c4573d6000803e3d6000fd5b505050506040513d601f19601f820116820180604052508101906104e891906112fb565b604051627eeac760e11b8152306004820152602481018890526001600160a01b03919091169062fdd58e90604401602060405180830381865afa158015610533573d6000803e3d6000fd5b505050506040513d601f19601f820116820180604052508101906105579190611343565b6040516001600160e01b031960e086901b1681526001600160a01b0390931660048401526024830191909152604482015260a06064820152601060a48201526f6d6d6d6d6d2c2064656c6963696f757360801b60c48201526001608482015260e401600060405180830381600087803b1580156105d357600080fd5b505af11580156105e7573d6000803e3d6000fd5b50505060009283525050602081905260409020805460ff19166001179055565b60008181526020819052604090205460ff1615610637576040516315e799c360e31b815260040160405180910390fd5b60008181526001602052604090205460ff1661066657604051635556f88f60e01b815260040160405180910390fd5b600354604080516331070bc960e21b815290516000926001600160a01b03169163c41c2f249160048083019260209291908290030181865afa1580156106b0573d6000803e3d6000fd5b505050506040513d601f19601f820116820180604052508101906106d491906112fb565b604051630862026560e41b81526004810184905261eeee60248201526001600160a01b039190911690638620265090604401602060405180830381865afa158015610723573d6000803e3d6000fd5b505050506040513d601f19601f8201168201806040525081019061074791906112fb565b90506000816001600160a01b031663975057e76040518163ffffffff1660e01b8152600401602060405180830381865afa158015610789573d6000803e3d6000fd5b505050506040513d601f19601f820116820180604052508101906107ad91906112fb565b604051627eeac760e11b81526001600160a01b03848116600483015260248201869052919091169062fdd58e90604401602060405180830381865afa1580156107fa573d6000803e3d6000fd5b505050506040513d601f19601f8201168201806040525081019061081e9190611343565b90506000600360009054906101000a90046001600160a01b03166001600160a01b031663619306306040518163ffffffff1660e01b8152600401602060405180830381865afa158015610875573d6000803e3d6000fd5b505050506040513d601f19601f8201168201806040525081019061089991906112fb565b6001600160a01b031663a7f2a70b85600660056040518463ffffffff1660e01b81526004016108ca9392919061148b565b6020604051808303816000875af11580156108e9573d6000803e3d6000fd5b505050506040513d601f19601f8201168201806040525081019061090d91906112fb565b60408051600180825281830190925291925060009190816020015b6109736040518060c0016040528060006001600160a01b0316815260200160006001600160a01b03168152602001600081526020016000815260200160008152602001600081525090565b81526020019060019003908161092857905050604051631982d67960e01b815261eeee60048201529091506000906001600160a01b03861690631982d67990602401602060405180830381865afa1580156109d2573d6000803e3d6000fd5b505050506040513d601f19601f820116820180604052508101906109f69190611343565b90506040518060c00160405280866001600160a01b0316815260200161eeee6001600160a01b0316815260200185815260200182815260200160008152602001600081525082600081518110610a4e57610a4e6114b6565b6020908102919091018101919091526040805160e0810182526000808252928101839052633b9aca00818301526060810183905230608082015260a0810183905260c0810183905281516001808252818401909352909291816020015b6040805160e08101825260008082526020808301829052928201819052606082018190526080820181905260a0820181905260c08201528252600019909201910181610aab5790505090508181600081518110610b0a57610b0a6114b6565b6020908102919091010152604080516001808252818301909252600091816020015b604080518082019091526000815260606020820152815260200190600190039081610b2c5790505090506040518060400160405280600181526020018381525081600081518110610b7f57610b7f6114b6565b60209081029190910181019190915260035460408051608080820183526000808352828601819052828401819052606080840182905284516102a081018652610240810183815261026082018490526102808201849052815296870182905261271087860181905290870152600191860182905260a0860181905260c0860181905260e0860181905261010086019190915261012085018190526101408501819052610160850181905261018085018190526101a085018190526101c085018190526101e0850181905261020085018190526102208501819052915163175b7be560e31b81526001600160a01b039093169363badbdf2893610c8b938f93929188908d90600401611627565b6020604051808303816000875af1158015610caa573d6000803e3d6000fd5b505050506040513d601f19601f82011682018060405250810190610cce9190611343565b5060025460035460408051630619306360e41b81529051600093926001600160a01b03169163619306309160048083019260209291908290030181865afa158015610d1d573d6000803e3d6000fd5b505050506040513d601f19601f82011682018060405250810190610d4191906112fb565b6001600160a01b03166375b0d9cd8c6040518263ffffffff1660e01b8152600401610d6e91815260200190565b602060405180830381865afa158015610d8b573d6000803e3d6000fd5b505050506040513d601f19601f82011682018060405250810190610daf9190611343565b610db99190611800565b600354604051638ae9c07b60e01b8152600481018d90526024810183905230604482015260c06064820152601560c482015274092dccee4cac8d2cadce8e640ccdee440d8eadcc6d605b1b60e482015260016084820152600060a48201529192506001600160a01b031690638ae9c07b90610104016020604051808303816000875af1158015610e4d573d6000803e3d6000fd5b505050506040513d601f19601f82011682018060405250810190610e719190611343565b50604080516020810182526000815290516301290c1760e61b81526001600160a01b038b1691634a4305c091610eb5918e918d918b9161eeee91849160040161181d565b6020604051808303816000875af1158015610ed4573d6000803e3d6000fd5b505050506040513d601f19601f82011682018060405250810190610ef89190611343565b50600760009054906101000a90046001600160a01b03166001600160a01b031663d0e30db0476040518263ffffffff1660e01b81526004016000604051808303818588803b158015610f4957600080fd5b505af1158015610f5d573d6000803e3d6000fd5b50506004805460405163095ea7b360e01b81526001600160a01b0391821692810192909252602482018690528b16935063095ea7b3925060440190506020604051808303816000875af1158015610fb8573d6000803e3d6000fd5b505050506040513d601f19601f82011682018060405250810190610fdc9190611862565b50600754600480546040516370a0823160e01b815230928101929092526001600160a01b039283169263095ea7b39291169083906370a0823190602401602060405180830381865afa158015611036573d6000803e3d6000fd5b505050506040513d601f19601f8201168201806040525081019061105a9190611343565b6040516001600160e01b031960e085901b1681526001600160a01b03909216600483015260248201526044016020604051808303816000875af11580156110a5573d6000803e3d6000fd5b505050506040513d601f19601f820116820180604052508101906110c99190611862565b506004805460408051610160810182526001600160a01b038b8116825260075481166020830181905261271083850152620d89e7196060840152620d89e8608084015260a0830187905292516370a0823160e01b8152309581019590955260009493169263883164569260c08301916370a0823190602401602060405180830381865afa15801561115e573d6000803e3d6000fd5b505050506040513d601f19601f820116820180604052508101906111829190611343565b815260006020820181905260408201523060608201526080016111a74261ea60611884565b8152506040518263ffffffff1660e01b81526004016111c69190611897565b6080604051808303816000875af11580156111e5573d6000803e3d6000fd5b505050506040513d601f19601f82011682018060405250810190611209919061195b565b50505060009b8c5260086020526040909b209a909a5550505050505050505050565b6001600160a01b038116811461124057600080fd5b50565b60008060008060006080868803121561125b57600080fd5b85356112668161122b565b945060208601356112768161122b565b935060408601359250606086013567ffffffffffffffff8082111561129a57600080fd5b818801915088601f8301126112ae57600080fd5b8135818111156112bd57600080fd5b8960208285010111156112cf57600080fd5b9699959850939650602001949392505050565b6000602082840312156112f457600080fd5b5035919050565b60006020828403121561130d57600080fd5b81516113188161122b565b9392505050565b6000806040838503121561133257600080fd5b505080516020909101519092909150565b60006020828403121561135557600080fd5b5051919050565b6000815180845260005b8181101561138257602081850181015186830182015201611366565b506000602082860101526020601f19601f83011685010191505092915050565b84815283602082015260018060a01b038316604082015260a06060820152600060a082015260c0608082015260006113dd60c083018461135c565b9695505050505050565b8054600090600181811c908083168061140157607f831692505b6020808410820361142257634e487b7160e01b600052602260045260246000fd5b8388526020880182801561143d57600181146114535761147e565b60ff198716825285151560051b8201975061147e565b60008981526020902060005b878110156114785781548482015290860190840161145f565b83019850505b5050505050505092915050565b8381526060602082015260006114a460608301856113e7565b82810360408401526113dd81856113e7565b634e487b7160e01b600052603260045260246000fd5b600081518084526020808501808196508360051b810191508286016000805b8681101561159e578385038a52825180518652860151604087870181905281518188018190529188019160609081890190865b818110156115875785518051151584528c81015115158d850152858101518685015284810151858501526080808201516001600160a01b039081169186019190915260a0808301519086015260c0918201511690840152948b019460e09092019160010161151e565b50509c89019c9750505092860192506001016114eb565b509298975050505050505050565b600081518084526020808501945080840160005b8381101561161c57815180516001600160a01b03908116895284820151168489015260408082015190890152606080820151908901526080808201519089015260a0908101519088015260c090960195908201906001016115c0565b509495945050505050565b60006103a088835287516020840152602088015160408401526040880151606084015260018060a01b03606089015116608084015261168460a0840188518051151582526020808201511515908301526040908101511515910152565b60208701516101008401526040870151610120840152606087015161014084015260808701518015156101608501525060a08701518015156101808501525060c08701518015156101a08501525060e08701518015156101c0850152506101008701518015156101e085015250610120870151801515610200850152506101408701518015156102208501525061016087015180151561024085015250610180870151801515610260850152506101a0870151801515610280850152506101c08701518015156102a0850152506101e08701518015156102c0850152506102008701516001600160a01b0381166102e085015250610220870151610300840152856103208401528061034084015261179e818401866114cc565b90508281036103608401526117b381856115ac565b838103610380850152600e81526d0a0e4cae0e0d2dcce40d8eadcc6d60931b60208201529050604081019998505050505050505050565b634e487b7160e01b600052601160045260246000fd5b8082028115828204841417611817576118176117ea565b92915050565b86815285602082015284604082015260018060a01b038416606082015282608082015260c060a0820152600061185660c083018461135c565b98975050505050505050565b60006020828403121561187457600080fd5b8151801515811461131857600080fd5b80820180821115611817576118176117ea565b81516001600160a01b03168152610160810160208301516118c360208401826001600160a01b03169052565b5060408301516118da604084018262ffffff169052565b5060608301516118ef606084018260020b9052565b506080830151611904608084018260020b9052565b5060a083015160a083015260c083015160c083015260e083015160e08301526101008084015181840152506101208084015161194a828501826001600160a01b03169052565b505061014092830151919092015290565b6000806000806080858703121561197157600080fd5b8451935060208501516001600160801b038116811461198f57600080fd5b604086015160609096015194979096509250505056fea26469706673582212206b02b2e0ef28465323293c8c0f0893f08e8c4ffc906bb18a494b3a1458021faf64736f6c63430008110033",
    "linkReferences": {}
  },
  "methodIdentifiers": {
    "onERC721Received(address,address,uint256,bytes)": "150b7a02",
    "serveLunch(uint256)": "8e3250a7",
    "sweepCrumbs(uint256)": "235d4046"
  },
  "id": 97
}