{
  "abi": [
    {
      "inputs": [
        {
          "internalType": "contract IJBController3_1",
          "name": "_controller",
          "type": "address"
        },
        {
          "internalType": "contract INonfungiblePositionManager",
          "name": "_positionManager",
          "type": "address"
        },
        {
          "internalType": "contract IWETH9",
          "name": "__weth",
          "type": "address"
        }
      ],
      "stateMutability": "nonpayable",
      "type": "constructor"
    },
    {
      "inputs": [],
      "name": "YUCK",
      "type": "error"
    },
    {
      "anonymous": false,
      "inputs": [
        {
          "indexed": true,
          "internalType": "uint256",
          "name": "projectId",
          "type": "uint256"
        },
        {
          "indexed": true,
          "internalType": "uint256",
          "name": "lpId",
          "type": "uint256"
        },
        {
          "indexed": false,
          "internalType": "uint256",
          "name": "ethFeeAmount",
          "type": "uint256"
        },
        {
          "indexed": false,
          "internalType": "uint256",
          "name": "tokenFeeAmount",
          "type": "uint256"
        },
        {
          "indexed": false,
          "internalType": "address",
          "name": "sender",
          "type": "address"
        }
      ],
      "name": "CrumbsWereSwept",
      "type": "event"
    },
    {
      "anonymous": false,
      "inputs": [
        {
          "indexed": true,
          "internalType": "uint256",
          "name": "projectId",
          "type": "uint256"
        },
        {
          "indexed": true,
          "internalType": "uint256",
          "name": "lpId",
          "type": "uint256"
        },
        {
          "indexed": false,
          "internalType": "uint256",
          "name": "projectBalance",
          "type": "uint256"
        },
        {
          "indexed": false,
          "internalType": "uint256",
          "name": "ethBalance",
          "type": "uint256"
        },
        {
          "indexed": false,
          "internalType": "uint256",
          "name": "tokenBalance",
          "type": "uint256"
        },
        {
          "indexed": false,
          "internalType": "address",
          "name": "sender",
          "type": "address"
        }
      ],
      "name": "LunchWasServed",
      "type": "event"
    },
    {
      "inputs": [],
      "name": "codeOrigin",
      "outputs": [
        {
          "internalType": "address",
          "name": "",
          "type": "address"
        }
      ],
      "stateMutability": "view",
      "type": "function"
    },
    {
      "inputs": [],
      "name": "controller",
      "outputs": [
        {
          "internalType": "contract IJBController3_1",
          "name": "",
          "type": "address"
        }
      ],
      "stateMutability": "view",
      "type": "function"
    },
    {
      "inputs": [
        {
          "internalType": "uint256",
          "name": "",
          "type": "uint256"
        }
      ],
      "name": "lpIdOf",
      "outputs": [
        {
          "internalType": "uint256",
          "name": "",
          "type": "uint256"
        }
      ],
      "stateMutability": "view",
      "type": "function"
    },
    {
      "inputs": [],
      "name": "lpSupplyMultiplier",
      "outputs": [
        {
          "internalType": "uint256",
          "name": "",
          "type": "uint256"
        }
      ],
      "stateMutability": "view",
      "type": "function"
    },
    {
      "inputs": [
        {
          "internalType": "address",
          "name": "_operator",
          "type": "address"
        },
        {
          "internalType": "address",
          "name": "_from",
          "type": "address"
        },
        {
          "internalType": "uint256",
          "name": "_tokenId",
          "type": "uint256"
        },
        {
          "internalType": "bytes",
          "name": "_data",
          "type": "bytes"
        }
      ],
      "name": "onERC721Received",
      "outputs": [
        {
          "internalType": "bytes4",
          "name": "",
          "type": "bytes4"
        }
      ],
      "stateMutability": "nonpayable",
      "type": "function"
    },
    {
      "inputs": [],
      "name": "positionManager",
      "outputs": [
        {
          "internalType": "contract INonfungiblePositionManager",
          "name": "",
          "type": "address"
        }
      ],
      "stateMutability": "view",
      "type": "function"
    },
    {
      "inputs": [
        {
          "internalType": "uint256",
          "name": "_lpSupplyMultiplier",
          "type": "uint256"
        },
        {
          "components": [
            {
              "internalType": "bool",
              "name": "preferClaimed",
              "type": "bool"
            },
            {
              "internalType": "bool",
              "name": "preferAddToBalance",
              "type": "bool"
            },
            {
              "internalType": "uint256",
              "name": "percent",
              "type": "uint256"
            },
            {
              "internalType": "uint256",
              "name": "projectId",
              "type": "uint256"
            },
            {
              "internalType": "address payable",
              "name": "beneficiary",
              "type": "address"
            },
            {
              "internalType": "uint256",
              "name": "lockedUntil",
              "type": "uint256"
            },
            {
              "internalType": "contract IJBSplitAllocator",
              "name": "allocator",
              "type": "address"
            }
          ],
          "internalType": "struct JBSplit[]",
          "name": "__splits",
          "type": "tuple[]"
        }
      ],
      "name": "setTheTable",
      "outputs": [],
      "stateMutability": "nonpayable",
      "type": "function"
    },
    {
      "inputs": [],
      "name": "splits",
      "outputs": [
        {
          "components": [
            {
              "internalType": "bool",
              "name": "preferClaimed",
              "type": "bool"
            },
            {
              "internalType": "bool",
              "name": "preferAddToBalance",
              "type": "bool"
            },
            {
              "internalType": "uint256",
              "name": "percent",
              "type": "uint256"
            },
            {
              "internalType": "uint256",
              "name": "projectId",
              "type": "uint256"
            },
            {
              "internalType": "address payable",
              "name": "beneficiary",
              "type": "address"
            },
            {
              "internalType": "uint256",
              "name": "lockedUntil",
              "type": "uint256"
            },
            {
              "internalType": "contract IJBSplitAllocator",
              "name": "allocator",
              "type": "address"
            }
          ],
          "internalType": "struct JBSplit[]",
          "name": "",
          "type": "tuple[]"
        }
      ],
      "stateMutability": "view",
      "type": "function"
    },
    {
      "inputs": [
        {
          "internalType": "uint256",
          "name": "_projectId",
          "type": "uint256"
        }
      ],
      "name": "sweepCrumbs",
      "outputs": [],
      "stateMutability": "nonpayable",
      "type": "function"
    }
  ],
  "bytecode": {
    "object": "0x60a06040523480156200001157600080fd5b506040516200213838038062002138833981016040819052620000349162000094565b600380546001600160a01b039485166001600160a01b03199182161790915560048054938516938216939093179092556000805491909316911617905530608052620000e8565b6001600160a01b03811681146200009157600080fd5b50565b600080600060608486031215620000aa57600080fd5b8351620000b7816200007b565b6020850151909350620000ca816200007b565b6040850151909250620000dd816200007b565b809150509250925092565b60805161202e6200010a6000396000818160fb01526107f6015261202e6000f3fe608060405234801561001057600080fd5b50600436106100925760003560e01c806341cb02421161006657806341cb02421461014a5780636cbdec7d14610153578063791b98bc14610168578063cdb7422e1461017b578063f77c47911461018e57600080fd5b806278c93114610097578063150b7a02146100ca5780631d153ca4146100f6578063235d404614610135575b600080fd5b6100b76100a5366004611759565b60056020526000908152604090205481565b6040519081526020015b60405180910390f35b6100dd6100d836600461178a565b6101a1565b6040516001600160e01b031990911681526020016100c1565b61011d7f000000000000000000000000000000000000000000000000000000000000000081565b6040516001600160a01b0390911681526020016100c1565b610148610143366004611759565b61025b565b005b6100b760025481565b61015b610734565b6040516100c19190611882565b60045461011d906001600160a01b031681565b6101486101893660046118cb565b6107ec565b60035461011d906001600160a01b031681565b600354604080516322de550f60e21b815290516000926001600160a01b031691638b79543c9160048083019260209291908290030181865afa1580156101eb573d6000803e3d6000fd5b505050506040513d601f19601f8201168201806040525081019061020f919061194a565b6001600160a01b0316336001600160a01b03161461024057604051633bcaa88960e11b815260040160405180910390fd5b610249846109cc565b50630a85bd0160e11b95945050505050565b60008181526005602090815260409182902054600480548451608081018652838152309481019485526001600160801b0381870181815260608301828152975163fc6f786560e01b815292519483019490945294516001600160a01b03908116602483015292518516604482015294519093166064850152909291169063fc6f78659060840160408051808303816000875af11580156102ff573d6000803e3d6000fd5b505050506040513d601f19601f82011682018060405250810190610323919061196e565b50506000546040516370a0823160e01b81523060048201526001600160a01b0390911690632e1a7d4d9082906370a0823190602401602060405180830381865afa158015610375573d6000803e3d6000fd5b505050506040513d601f19601f820116820180604052508101906103999190611992565b6040518263ffffffff1660e01b81526004016103b791815260200190565b600060405180830381600087803b1580156103d157600080fd5b505af11580156103e5573d6000803e3d6000fd5b505050506000600360009054906101000a90046001600160a01b03166001600160a01b031663c41c2f246040518163ffffffff1660e01b8152600401602060405180830381865afa15801561043e573d6000803e3d6000fd5b505050506040513d601f19601f82011682018060405250810190610462919061194a565b604051630862026560e41b81526004810185905261eeee60248201526001600160a01b039190911690638620265090604401602060405180830381865afa1580156104b1573d6000803e3d6000fd5b505050506040513d601f19601f820116820180604052508101906104d5919061194a565b90506000479050816001600160a01b0316630cf8e85847868461eeee603160f81b60405160200161050891815260200190565b6040516020818303038152906040526040518663ffffffff1660e01b815260040161053694939291906119f1565b6000604051808303818588803b15801561054f57600080fd5b505af1158015610563573d6000803e3d6000fd5b50505050506000600360009054906101000a90046001600160a01b03166001600160a01b031663619306306040518163ffffffff1660e01b8152600401602060405180830381865afa1580156105bd573d6000803e3d6000fd5b505050506040513d601f19601f820116820180604052508101906105e1919061194a565b604051627eeac760e11b8152306004820152602481018790526001600160a01b03919091169062fdd58e90604401602060405180830381865afa15801561062c573d6000803e3d6000fd5b505050506040513d601f19601f820116820180604052508101906106509190611992565b600354604051631665bc0f60e01b8152306004820152602481018890526044810183905260a06064820152601060a48201526f6d6d6d6d6d2c2064656c6963696f757360801b60c4820152600160848201529192506001600160a01b031690631665bc0f9060e401600060405180830381600087803b1580156106d257600080fd5b505af11580156106e6573d6000803e3d6000fd5b50506040805185815260208101859052338183015290518793508892507fe9891edc01eb9bebea32ee795181b21c41ad1ffa99a3eb076079dc73bc0efe119181900360600190a35050505050565b60606001805480602002602001604051908101604052809291908181526020016000905b828210156107e35760008481526020908190206040805160e08101825260068602909201805460ff8082161515855261010090910416151583850152600180820154928401929092526002810154606084015260038101546001600160a01b039081166080850152600482015460a08501526005909101541660c08301529083529092019101610758565b50505050905090565b6001600160a01b037f000000000000000000000000000000000000000000000000000000000000000016300361082157600080fd5b6003546001600160a01b03161561083757600080fd5b6000831161085857604051633bcaa88960e11b815260040160405180910390fd5b600283905580600081900361086d5750505050565b61087561171d565b60005b828110156109c45784848281811061089257610892611a36565b905060e002018036038101906108a89190611a8b565b91506040518060e00160405280836000015115158152602001836020015115158152602001836040015181526020018360600151815260200183608001516001600160a01b031681526020018360a0015181526020018360c001516001600160a01b03168152506001828154811061092257610922611a36565b6000918252602091829020835160069092020180549284015115156101000261ff00199215159290921661ffff199093169290921717815560408201516001808301919091556060830151600283015560808301516003830180546001600160a01b039283166001600160a01b03199182161790915560a0850151600485015560c0909401516005909301805493909116929093169190911790915501610878565b505050505050565b600354604080516331070bc960e21b815290516000926001600160a01b03169163c41c2f249160048083019260209291908290030181865afa158015610a16573d6000803e3d6000fd5b505050506040513d601f19601f82011682018060405250810190610a3a919061194a565b604051630862026560e41b81526004810184905261eeee60248201526001600160a01b039190911690638620265090604401602060405180830381865afa158015610a89573d6000803e3d6000fd5b505050506040513d601f19601f82011682018060405250810190610aad919061194a565b90506000816001600160a01b031663975057e76040518163ffffffff1660e01b8152600401602060405180830381865afa158015610aef573d6000803e3d6000fd5b505050506040513d601f19601f82011682018060405250810190610b13919061194a565b604051627eeac760e11b81526001600160a01b03848116600483015260248201869052919091169062fdd58e90604401602060405180830381865afa158015610b60573d6000803e3d6000fd5b505050506040513d601f19601f82011682018060405250810190610b849190611992565b90506000600360009054906101000a90046001600160a01b03166001600160a01b031663619306306040518163ffffffff1660e01b8152600401602060405180830381865afa158015610bdb573d6000803e3d6000fd5b505050506040513d601f19601f82011682018060405250810190610bff919061194a565b6001600160a01b031663ea78803f856040518263ffffffff1660e01b8152600401610c2c91815260200190565b602060405180830381865afa158015610c49573d6000803e3d6000fd5b505050506040513d601f19601f82011682018060405250810190610c6d919061194a565b604051631982d67960e01b815261eeee60048201529091506000906001600160a01b03851690631982d67990602401602060405180830381865afa158015610cb9573d6000803e3d6000fd5b505050506040513d601f19601f82011682018060405250810190610cdd9190611992565b60408051600180825281830190925291925060009190816020015b610d436040518060c0016040528060006001600160a01b0316815260200160006001600160a01b03168152602001600081526020016000815260200160008152602001600081525090565b815260200190600190039081610cf85790505090506040518060c00160405280866001600160a01b0316815260200161eeee6001600160a01b0316815260200185815260200183815260200160008152602001600081525081600081518110610dae57610dae611a36565b60209081029190910101526001805490600090610dcc908390611b4a565b67ffffffffffffffff811115610de457610de4611a4c565b604051908082528060200260200182016040528015610e1d57816020015b610e0a61171d565b815260200190600190039081610e025790505b509050610e2861171d565b6000805b84811015610efd5760018181548110610e4757610e47611a36565b60009182526020918290206040805160e0810182526006909302909101805460ff80821615158552610100909104161515938301939093526001830154908201526002820154606082015260038201546001600160a01b039081166080830152600483015460a083015260059092015490911660c082015284519093508390859083908110610ed857610ed8611a36565b6020026020010181905250826040015182610ef39190611b4a565b9150600101610e2c565b506040805160e08101825260008082526020820152908101610f2383633b9aca00611b63565b815260200160008152602001306001600160a01b031681526020016000815260200160006001600160a01b0316815250915081838581518110610f6857610f68611a36565b6020908102919091010152604080516001808252818301909252600091816020015b604080518082019091526000815260606020820152815260200190600190039081610f8a5790505090506040518060400160405280600181526020018581525081600081518110610fdd57610fdd611a36565b6020026020010181905250600360009054906101000a90046001600160a01b03166001600160a01b031663badbdf288c604051806080016040528060008152602001600081526020016000815260200160006001600160a01b03168152506040518061024001604052806040518060600160405280600015158152602001600015158152602001600015158152508152602001600081526020016127108152602001612710815260200160011515815260200160001515815260200160001515815260200160001515815260200160011515815260200160001515815260200160001515815260200160001515815260200160001515815260200160001515815260200160001515815260200160001515815260200160006001600160a01b0316815260200160008152506000868c6040518763ffffffff1660e01b815260040161112d96959493929190611c8a565b6020604051808303816000875af115801561114c573d6000803e3d6000fd5b505050506040513d601f19601f820116820180604052508101906111709190611992565b505050505050506000600254600360009054906101000a90046001600160a01b03166001600160a01b031663619306306040518163ffffffff1660e01b8152600401602060405180830381865afa1580156111cf573d6000803e3d6000fd5b505050506040513d601f19601f820116820180604052508101906111f3919061194a565b6001600160a01b03166375b0d9cd886040518263ffffffff1660e01b815260040161122091815260200190565b602060405180830381865afa15801561123d573d6000803e3d6000fd5b505050506040513d601f19601f820116820180604052508101906112619190611992565b61126b9190611e71565b600354604051638ae9c07b60e01b8152600481018990526024810183905230604482015260c06064820152601560c482015274092dccee4cac8d2cadce8e640ccdee440d8eadcc6d605b1b60e482015260016084820152600060a48201529192506001600160a01b031690638ae9c07b90610104016020604051808303816000875af11580156112ff573d6000803e3d6000fd5b505050506040513d601f19601f820116820180604052508101906113239190611992565b50604080516020810182526000815290516301290c1760e61b81526001600160a01b03871691634a4305c091611367918a918991889161eeee918491600401611e88565b6020604051808303816000875af1158015611386573d6000803e3d6000fd5b505050506040513d601f19601f820116820180604052508101906113aa9190611992565b506000805460408051630d0e30db60e41b8152905147936001600160a01b039093169263d0e30db09285926004808301939282900301818588803b1580156113f157600080fd5b505af1158015611405573d6000803e3d6000fd5b50506004805460405163095ea7b360e01b81526001600160a01b0391821692810192909252602482018790528816935063095ea7b3925060440190506020604051808303816000875af1158015611460573d6000803e3d6000fd5b505050506040513d601f19601f820116820180604052508101906114849190611ecd565b50600054600480546040516370a0823160e01b815230928101929092526001600160a01b039283169263095ea7b39291169083906370a0823190602401602060405180830381865afa1580156114de573d6000803e3d6000fd5b505050506040513d601f19601f820116820180604052508101906115029190611992565b6040516001600160e01b031960e085901b1681526001600160a01b03909216600483015260248201526044016020604051808303816000875af115801561154d573d6000803e3d6000fd5b505050506040513d601f19601f820116820180604052508101906115719190611ecd565b506004805460408051610160810182526001600160a01b0388811682526000805482166020840181905261271084860152620d89e7196060850152620d89e8608085015260a0840189905293516370a0823160e01b815230968101969096529493169263883164569260c08301916370a0823190602401602060405180830381865afa158015611605573d6000803e3d6000fd5b505050506040513d601f19601f820116820180604052508101906116299190611992565b8152600060208201819052604082015230606082015260800161164e4261ea60611b4a565b8152506040518263ffffffff1660e01b815260040161166d9190611eea565b6080604051808303816000875af115801561168c573d6000803e3d6000fd5b505050506040513d601f19601f820116820180604052508101906116b09190611fae565b5050506000898152600560209081526040918290208390558151898152908101859052908101859052336060820152909150819089907f98119214c22a703530adfc3ac49c6bed3ccedf37ca3c9832e60d2c17b82cc87f9060800160405180910390a35050505050505050565b6040805160e081018252600080825260208201819052918101829052606081018290526080810182905260a0810182905260c081019190915290565b60006020828403121561176b57600080fd5b5035919050565b6001600160a01b038116811461178757600080fd5b50565b6000806000806000608086880312156117a257600080fd5b85356117ad81611772565b945060208601356117bd81611772565b935060408601359250606086013567ffffffffffffffff808211156117e157600080fd5b818801915088601f8301126117f557600080fd5b81358181111561180457600080fd5b89602082850101111561181657600080fd5b9699959850939650602001949392505050565b80511515825260208082015115159083015260408082015190830152606080820151908301526080808201516001600160a01b039081169184019190915260a0808301519084015260c091820151169082015260e00190565b6020808252825182820181905260009190848201906040850190845b818110156118bf576118b1838551611829565b93850193925060010161189e565b50909695505050505050565b6000806000604084860312156118e057600080fd5b83359250602084013567ffffffffffffffff808211156118ff57600080fd5b818601915086601f83011261191357600080fd5b81358181111561192257600080fd5b87602060e08302850101111561193757600080fd5b6020830194508093505050509250925092565b60006020828403121561195c57600080fd5b815161196781611772565b9392505050565b6000806040838503121561198157600080fd5b505080516020909101519092909150565b6000602082840312156119a457600080fd5b5051919050565b6000815180845260005b818110156119d1576020818501810151868301820152016119b5565b506000602082860101526020601f19601f83011685010191505092915050565b84815283602082015260018060a01b038316604082015260a06060820152600060a082015260c060808201526000611a2c60c08301846119ab565b9695505050505050565b634e487b7160e01b600052603260045260246000fd5b634e487b7160e01b600052604160045260246000fd5b801515811461178757600080fd5b8035611a7b81611a62565b919050565b8035611a7b81611772565b600060e08284031215611a9d57600080fd5b60405160e0810181811067ffffffffffffffff82111715611ace57634e487b7160e01b600052604160045260246000fd5b604052611ada83611a70565b8152611ae860208401611a70565b60208201526040830135604082015260608301356060820152611b0d60808401611a80565b608082015260a083013560a0820152611b2860c08401611a80565b60c08201529392505050565b634e487b7160e01b600052601160045260246000fd5b80820180821115611b5d57611b5d611b34565b92915050565b81810381811115611b5d57611b5d611b34565b600081518084526020808501808196508360051b810191508286016000805b86811015611c01578385038a528251805186528601516040878701819052815190870181905290870190606087019084905b80821015611bec57611bda838551611829565b92508984019350600182019150611bc7565b50509a87019a95505091850191600101611b95565b509298975050505050505050565b600081518084526020808501945080840160005b83811015611c7f57815180516001600160a01b03908116895284820151168489015260408082015190890152606080820151908901526080808201519089015260a0908101519088015260c09096019590820190600101611c23565b509495945050505050565b60006103a088835287516020840152602088015160408401526040880151606084015260018060a01b036060890151166080840152611ce760a0840188518051151582526020808201511515908301526040908101511515910152565b6020870151610100818186015260408901519150610120828187015260608a01519250610140838188015260808b01519350610160611d298189018615159052565b60a08c01519450610180611d40818a018715159052565b60c08d015195506101a0611d57818b018815159052565b60e08e015196506101c0611d6e818c018915159052565b958e015196506101e095611d858b88018915159052565b948e0151965061020094611d9c8b87018915159052565b938e0151965061022093611db38b86018915159052565b928e015115156102408b0152908d015115156102608a01528c015115156102808901528b015115156102a0880152918a015115156102c08701528901516001600160a01b03166102e08601528801516103008501525061032083018690526103408301819052611e2581840186611b76565b9050828103610360840152611e3a8185611c0f565b838103610380850152600e81526d0a0e4cae0e0d2dcce40d8eadcc6d60931b60208201529050604081019998505050505050505050565b8082028115828204841417611b5d57611b5d611b34565b86815285602082015284604082015260018060a01b038416606082015282608082015260c060a08201526000611ec160c08301846119ab565b98975050505050505050565b600060208284031215611edf57600080fd5b815161196781611a62565b81516001600160a01b0316815261016081016020830151611f1660208401826001600160a01b03169052565b506040830151611f2d604084018262ffffff169052565b506060830151611f42606084018260020b9052565b506080830151611f57608084018260020b9052565b5060a083015160a083015260c083015160c083015260e083015160e083015261010080840151818401525061012080840151611f9d828501826001600160a01b03169052565b505061014092830151919092015290565b60008060008060808587031215611fc457600080fd5b8451935060208501516001600160801b0381168114611fe257600080fd5b604086015160609096015194979096509250505056fea2646970667358221220ccaf71532882ca20e4fa9aaaf8020b40190e8c2ee17a017c41e7df0a3b1a6b7864736f6c63430008110033",
    "linkReferences": {}
  },
  "methodIdentifiers": {
    "codeOrigin()": "1d153ca4",
    "controller()": "f77c4791",
    "lpIdOf(uint256)": "0078c931",
    "lpSupplyMultiplier()": "41cb0242",
    "onERC721Received(address,address,uint256,bytes)": "150b7a02",
    "positionManager()": "791b98bc",
    "setTheTable(uint256,(bool,bool,uint256,uint256,address,uint256,address)[])": "cdb7422e",
    "splits()": "6cbdec7d",
    "sweepCrumbs(uint256)": "235d4046"
  },
  "id": 98
}