{
  "abi": [
    {
      "inputs": [
        {
          "internalType": "uint256",
          "name": "_lpSupplyMultiplier",
          "type": "uint256"
        },
        {
          "internalType": "string",
          "name": "_symbol",
          "type": "string"
        },
        {
          "internalType": "string",
          "name": "_name",
          "type": "string"
        },
        {
          "internalType": "contract IJBController3_1",
          "name": "_controller",
          "type": "address"
        },
        {
          "internalType": "contract INonfungiblePositionManager",
          "name": "_positionManager",
          "type": "address"
        },
        {
          "internalType": "contract IWETH9",
          "name": "__weth",
          "type": "address"
        }
      ],
      "stateMutability": "nonpayable",
      "type": "constructor"
    },
    {
      "inputs": [],
      "name": "LUNCH_ALREADY_SERVED",
      "type": "error"
    },
    {
      "inputs": [],
      "name": "LUNCH_CANT_BE_SERVED_YET",
      "type": "error"
    },
    {
      "inputs": [],
      "name": "YUCK",
      "type": "error"
    },
    {
      "anonymous": false,
      "inputs": [
        {
          "indexed": false,
          "internalType": "uint256",
          "name": "projectId",
          "type": "uint256"
        }
      ],
      "name": "BluntHasBeenPassed",
      "type": "event"
    },
    {
      "anonymous": false,
      "inputs": [
        {
          "indexed": false,
          "internalType": "uint256",
          "name": "projectId",
          "type": "uint256"
        },
        {
          "indexed": false,
          "internalType": "uint256",
          "name": "lpId",
          "type": "uint256"
        },
        {
          "indexed": false,
          "internalType": "uint256",
          "name": "ethFeeAmount",
          "type": "uint256"
        },
        {
          "indexed": false,
          "internalType": "uint256",
          "name": "tokenFeeAmount",
          "type": "uint256"
        },
        {
          "indexed": false,
          "internalType": "address",
          "name": "sender",
          "type": "address"
        }
      ],
      "name": "CrumbsWereSwept",
      "type": "event"
    },
    {
      "anonymous": false,
      "inputs": [
        {
          "indexed": false,
          "internalType": "uint256",
          "name": "projectId",
          "type": "uint256"
        },
        {
          "indexed": false,
          "internalType": "uint256",
          "name": "lpId",
          "type": "uint256"
        },
        {
          "indexed": false,
          "internalType": "uint256",
          "name": "projectBalance",
          "type": "uint256"
        },
        {
          "indexed": false,
          "internalType": "uint256",
          "name": "tokensToMint",
          "type": "uint256"
        },
        {
          "indexed": false,
          "internalType": "address",
          "name": "sender",
          "type": "address"
        }
      ],
      "name": "LunchWasServed",
      "type": "event"
    },
    {
      "inputs": [
        {
          "internalType": "address",
          "name": "_operator",
          "type": "address"
        },
        {
          "internalType": "address",
          "name": "_from",
          "type": "address"
        },
        {
          "internalType": "uint256",
          "name": "_tokenId",
          "type": "uint256"
        },
        {
          "internalType": "bytes",
          "name": "_data",
          "type": "bytes"
        }
      ],
      "name": "onERC721Received",
      "outputs": [
        {
          "internalType": "bytes4",
          "name": "",
          "type": "bytes4"
        }
      ],
      "stateMutability": "nonpayable",
      "type": "function"
    },
    {
      "inputs": [
        {
          "internalType": "uint256",
          "name": "_projectId",
          "type": "uint256"
        }
      ],
      "name": "serveLunch",
      "outputs": [],
      "stateMutability": "nonpayable",
      "type": "function"
    },
    {
      "inputs": [
        {
          "internalType": "uint256",
          "name": "_projectId",
          "type": "uint256"
        }
      ],
      "name": "sweepCrumbs",
      "outputs": [],
      "stateMutability": "nonpayable",
      "type": "function"
    }
  ],
  "bytecode": {
    "object": "0x60806040523480156200001157600080fd5b5060405162001ed438038062001ed483398101604081905262000034916200019e565b600086116200005657604051633bcaa88960e11b815260040160405180910390fd5b60038690556006620000698682620002e2565b506007620000788582620002e2565b50600480546001600160a01b039485166001600160a01b03199182161790915560058054938516938216939093179092556000805491909316911617905550620003ae915050565b634e487b7160e01b600052604160045260246000fd5b600082601f830112620000e857600080fd5b81516001600160401b0380821115620001055762000105620000c0565b604051601f8301601f19908116603f01168101908282118183101715620001305762000130620000c0565b816040528381526020925086838588010111156200014d57600080fd5b600091505b8382101562000171578582018301518183018401529082019062000152565b600093810190920192909252949350505050565b6001600160a01b03811681146200019b57600080fd5b50565b60008060008060008060c08789031215620001b857600080fd5b865160208801519096506001600160401b0380821115620001d857600080fd5b620001e68a838b01620000d6565b96506040890151915080821115620001fd57600080fd5b506200020c89828a01620000d6565b94505060608701516200021f8162000185565b6080880151909350620002328162000185565b60a0880151909250620002458162000185565b809150509295509295509295565b600181811c908216806200026857607f821691505b6020821081036200028957634e487b7160e01b600052602260045260246000fd5b50919050565b601f821115620002dd57600081815260208120601f850160051c81016020861015620002b85750805b601f850160051c820191505b81811015620002d957828155600101620002c4565b5050505b505050565b81516001600160401b03811115620002fe57620002fe620000c0565b62000316816200030f845462000253565b846200028f565b602080601f8311600181146200034e5760008415620003355750858301515b600019600386901b1c1916600185901b178555620002d9565b600085815260208120601f198616915b828110156200037f578886015182559484019460019091019084016200035e565b50858210156200039e5787850151600019600388901b60f8161c191681555b5050505050600190811b01905550565b611b1680620003be6000396000f3fe608060405234801561001057600080fd5b50600436106100415760003560e01c8063150b7a0214610046578063235d4046146100765780638e3250a71461008b575b600080fd5b61005961005436600461137e565b61009e565b6040516001600160e01b0319909116815260200160405180910390f35b61008961008436600461141d565b6101ad565b005b61008961009936600461141d565b610689565b6000600460009054906101000a90046001600160a01b03166001600160a01b0316638b79543c6040518163ffffffff1660e01b8152600401602060405180830381865afa1580156100f3573d6000803e3d6000fd5b505050506040513d601f19601f820116820180604052508101906101179190611436565b6001600160a01b0316336001600160a01b03161461014857604051633bcaa88960e11b815260040160405180910390fd5b60008481526002602052604090819020805460ff19166001179055517f2310ecde93c870a0a8b4c38a6cfce89b280f29801d367f466ae58768d41c3360906101939086815260200190565b60405180910390a150630a85bd0160e11b95945050505050565b600081815260086020908152604091829020546005548351608081018552828152309381019384526001600160801b0381860181815260608301828152965163fc6f786560e01b81529251600484015294516001600160a01b03908116602484015294518116604483015294519094166064850152909291169063fc6f78659060840160408051808303816000875af115801561024e573d6000803e3d6000fd5b505050506040513d601f19601f82011682018060405250810190610272919061145a565b50506000546040516370a0823160e01b81523060048201526001600160a01b0390911690632e1a7d4d9082906370a0823190602401602060405180830381865afa1580156102c4573d6000803e3d6000fd5b505050506040513d601f19601f820116820180604052508101906102e8919061147e565b6040518263ffffffff1660e01b815260040161030691815260200190565b600060405180830381600087803b15801561032057600080fd5b505af1158015610334573d6000803e3d6000fd5b505050506000600460009054906101000a90046001600160a01b03166001600160a01b031663c41c2f246040518163ffffffff1660e01b8152600401602060405180830381865afa15801561038d573d6000803e3d6000fd5b505050506040513d601f19601f820116820180604052508101906103b19190611436565b604051630862026560e41b81526004810185905261eeee60248201526001600160a01b039190911690638620265090604401602060405180830381865afa158015610400573d6000803e3d6000fd5b505050506040513d601f19601f820116820180604052508101906104249190611436565b90506000479050816001600160a01b0316630cf8e85847868461eeee603160f81b60405160200161045791815260200190565b6040516020818303038152906040526040518663ffffffff1660e01b815260040161048594939291906114dd565b6000604051808303818588803b15801561049e57600080fd5b505af11580156104b2573d6000803e3d6000fd5b50506004805460408051630619306360e41b81529051600096506001600160a01b0390921694506361930630935080830192602092918290030181865afa158015610501573d6000803e3d6000fd5b505050506040513d601f19601f820116820180604052508101906105259190611436565b604051627eeac760e11b8152306004820152602481018790526001600160a01b03919091169062fdd58e90604401602060405180830381865afa158015610570573d6000803e3d6000fd5b505050506040513d601f19601f82011682018060405250810190610594919061147e565b60048054604051631665bc0f60e01b81523092810192909252602482018890526044820183905260a06064830152601060a48301526f6d6d6d6d6d2c2064656c6963696f757360801b60c4830152600160848301529192506001600160a01b0390911690631665bc0f9060e401600060405180830381600087803b15801561061b57600080fd5b505af115801561062f573d6000803e3d6000fd5b50506040805188815260208101889052908101859052606081018490523360808201527fe9891edc01eb9bebea32ee795181b21c41ad1ffa99a3eb076079dc73bc0efe11925060a001905060405180910390a15050505050565b60008181526001602052604090205460ff16156106b9576040516315e799c360e31b815260040160405180910390fd5b60008181526002602052604090205460ff166106e857604051635556f88f60e01b815260040160405180910390fd5b6000600460009054906101000a90046001600160a01b03166001600160a01b031663c41c2f246040518163ffffffff1660e01b8152600401602060405180830381865afa15801561073d573d6000803e3d6000fd5b505050506040513d601f19601f820116820180604052508101906107619190611436565b604051630862026560e41b81526004810184905261eeee60248201526001600160a01b039190911690638620265090604401602060405180830381865afa1580156107b0573d6000803e3d6000fd5b505050506040513d601f19601f820116820180604052508101906107d49190611436565b90506000816001600160a01b031663975057e76040518163ffffffff1660e01b8152600401602060405180830381865afa158015610816573d6000803e3d6000fd5b505050506040513d601f19601f8201168201806040525081019061083a9190611436565b604051627eeac760e11b81526001600160a01b03848116600483015260248201869052919091169062fdd58e90604401602060405180830381865afa158015610887573d6000803e3d6000fd5b505050506040513d601f19601f820116820180604052508101906108ab919061147e565b90506000600460009054906101000a90046001600160a01b03166001600160a01b031663619306306040518163ffffffff1660e01b8152600401602060405180830381865afa158015610902573d6000803e3d6000fd5b505050506040513d601f19601f820116820180604052508101906109269190611436565b6001600160a01b031663a7f2a70b85600760066040518463ffffffff1660e01b8152600401610957939291906115c6565b6020604051808303816000875af1158015610976573d6000803e3d6000fd5b505050506040513d601f19601f8201168201806040525081019061099a9190611436565b604051631982d67960e01b815261eeee60048201529091506000906001600160a01b03851690631982d67990602401602060405180830381865afa1580156109e6573d6000803e3d6000fd5b505050506040513d601f19601f82011682018060405250810190610a0a919061147e565b60408051600180825281830190925291925060009190816020015b610a706040518060c0016040528060006001600160a01b0316815260200160006001600160a01b03168152602001600081526020016000815260200160008152602001600081525090565b815260200190600190039081610a255790505090506040518060c00160405280866001600160a01b0316815260200161eeee6001600160a01b0316815260200185815260200183815260200160008152602001600081525081600081518110610adb57610adb6115f1565b6020908102919091018101919091526040805160e0810182526000808252928101839052633b9aca00818301526060810183905230608082015260a0810183905260c0810183905281516001808252818401909352909291816020015b6040805160e08101825260008082526020808301829052928201819052606082018190526080820181905260a0820181905260c08201528252600019909201910181610b385790505090508181600081518110610b9757610b976115f1565b6020908102919091010152604080516001808252818301909252600091816020015b604080518082019091526000815260606020820152815260200190600190039081610bb95790505090506040518060400160405280600181526020018381525081600081518110610c0c57610c0c6115f1565b6020026020010181905250600460009054906101000a90046001600160a01b03166001600160a01b031663badbdf288a604051806080016040528060008152602001600081526020016000815260200160006001600160a01b03168152506040518061024001604052806040518060600160405280600015158152602001600015158152602001600015158152508152602001600081526020016127108152602001612710815260200160011515815260200160001515815260200160001515815260200160001515815260200160011515815260200160001515815260200160001515815260200160001515815260200160001515815260200160001515815260200160001515815260200160001515815260200160006001600160a01b0316815260200160008152506000868a6040518763ffffffff1660e01b8152600401610d5c96959493929190611762565b6020604051808303816000875af1158015610d7b573d6000803e3d6000fd5b505050506040513d601f19601f82011682018060405250810190610d9f919061147e565b506000600354600460009054906101000a90046001600160a01b03166001600160a01b031663619306306040518163ffffffff1660e01b8152600401602060405180830381865afa158015610df8573d6000803e3d6000fd5b505050506040513d601f19601f82011682018060405250810190610e1c9190611436565b6001600160a01b03166375b0d9cd8c6040518263ffffffff1660e01b8152600401610e4991815260200190565b602060405180830381865afa158015610e66573d6000803e3d6000fd5b505050506040513d601f19601f82011682018060405250810190610e8a919061147e565b610e94919061193b565b60048054604051638ae9c07b60e01b81529182018d90526024820183905230604483015260c06064830152601560c483015274092dccee4cac8d2cadce8e640ccdee440d8eadcc6d605b1b60e483015260016084830152600060a48301529192506001600160a01b0390911690638ae9c07b90610104016020604051808303816000875af1158015610f2a573d6000803e3d6000fd5b505050506040513d601f19601f82011682018060405250810190610f4e919061147e565b50604080516020810182526000815290516301290c1760e61b81526001600160a01b038b1691634a4305c091610f92918e918d918c9161eeee918491600401611958565b6020604051808303816000875af1158015610fb1573d6000803e3d6000fd5b505050506040513d601f19601f82011682018060405250810190610fd5919061147e565b5060008054906101000a90046001600160a01b03166001600160a01b031663d0e30db0476040518263ffffffff1660e01b81526004016000604051808303818588803b15801561102457600080fd5b505af1158015611038573d6000803e3d6000fd5b505060055460405163095ea7b360e01b81526001600160a01b03918216600482015260248101869052908b16935063095ea7b3925060440190506020604051808303816000875af1158015611091573d6000803e3d6000fd5b505050506040513d601f19601f820116820180604052508101906110b5919061199d565b506000546005546040516370a0823160e01b81523060048201526001600160a01b039283169263095ea7b392169083906370a0823190602401602060405180830381865afa15801561110b573d6000803e3d6000fd5b505050506040513d601f19601f8201168201806040525081019061112f919061147e565b6040516001600160e01b031960e085901b1681526001600160a01b03909216600483015260248201526044016020604051808303816000875af115801561117a573d6000803e3d6000fd5b505050506040513d601f19601f8201168201806040525081019061119e919061199d565b5060055460408051610160810182526001600160a01b038a811682526000805482166020840181905261271084860152620d89e7196060850152620d89e8608085015260a0840187905293516370a0823160e01b8152306004820152909491909116926388316456929160c0830191906370a0823190602401602060405180830381865afa158015611234573d6000803e3d6000fd5b505050506040513d601f19601f82011682018060405250810190611258919061147e565b8152600060208201819052604082015230606082015260800161127d4261ea606119bf565b8152506040518263ffffffff1660e01b815260040161129c91906119d2565b6080604051808303816000875af11580156112bb573d6000803e3d6000fd5b505050506040513d601f19601f820116820180604052508101906112df9190611a96565b50505060008c8152600860209081526040808320849055600180835292819020805460ff191690931790925581518e81529081018390529081018b9052606081018490523360808201529091507f367b62b98aa158792373ec28de839db8d59a730146de2731a60cc120a38fc4939060a00160405180910390a15050505050505050505050565b6001600160a01b038116811461137b57600080fd5b50565b60008060008060006080868803121561139657600080fd5b85356113a181611366565b945060208601356113b181611366565b935060408601359250606086013567ffffffffffffffff808211156113d557600080fd5b818801915088601f8301126113e957600080fd5b8135818111156113f857600080fd5b89602082850101111561140a57600080fd5b9699959850939650602001949392505050565b60006020828403121561142f57600080fd5b5035919050565b60006020828403121561144857600080fd5b815161145381611366565b9392505050565b6000806040838503121561146d57600080fd5b505080516020909101519092909150565b60006020828403121561149057600080fd5b5051919050565b6000815180845260005b818110156114bd576020818501810151868301820152016114a1565b506000602082860101526020601f19601f83011685010191505092915050565b84815283602082015260018060a01b038316604082015260a06060820152600060a082015260c06080820152600061151860c0830184611497565b9695505050505050565b8054600090600181811c908083168061153c57607f831692505b6020808410820361155d57634e487b7160e01b600052602260045260246000fd5b83885260208801828015611578576001811461158e576115b9565b60ff198716825285151560051b820197506115b9565b60008981526020902060005b878110156115b35781548482015290860190840161159a565b83019850505b5050505050505092915050565b8381526060602082015260006115df6060830185611522565b82810360408401526115188185611522565b634e487b7160e01b600052603260045260246000fd5b600081518084526020808501808196508360051b810191508286016000805b868110156116d9578385038a52825180518652860151604087870181905281518188018190529188019160609081890190865b818110156116c25785518051151584528c81015115158d850152858101518685015284810151858501526080808201516001600160a01b039081169186019190915260a0808301519086015260c0918201511690840152948b019460e090920191600101611659565b50509c89019c975050509286019250600101611626565b509298975050505050505050565b600081518084526020808501945080840160005b8381101561175757815180516001600160a01b03908116895284820151168489015260408082015190890152606080820151908901526080808201519089015260a0908101519088015260c090960195908201906001016116fb565b509495945050505050565b60006103a088835287516020840152602088015160408401526040880151606084015260018060a01b0360608901511660808401526117bf60a0840188518051151582526020808201511515908301526040908101511515910152565b60208701516101008401526040870151610120840152606087015161014084015260808701518015156101608501525060a08701518015156101808501525060c08701518015156101a08501525060e08701518015156101c0850152506101008701518015156101e085015250610120870151801515610200850152506101408701518015156102208501525061016087015180151561024085015250610180870151801515610260850152506101a0870151801515610280850152506101c08701518015156102a0850152506101e08701518015156102c0850152506102008701516001600160a01b0381166102e08501525061022087015161030084015285610320840152806103408401526118d981840186611607565b90508281036103608401526118ee81856116e7565b838103610380850152600e81526d0a0e4cae0e0d2dcce40d8eadcc6d60931b60208201529050604081019998505050505050505050565b634e487b7160e01b600052601160045260246000fd5b808202811582820484141761195257611952611925565b92915050565b86815285602082015284604082015260018060a01b038416606082015282608082015260c060a0820152600061199160c0830184611497565b98975050505050505050565b6000602082840312156119af57600080fd5b8151801515811461145357600080fd5b8082018082111561195257611952611925565b81516001600160a01b03168152610160810160208301516119fe60208401826001600160a01b03169052565b506040830151611a15604084018262ffffff169052565b506060830151611a2a606084018260020b9052565b506080830151611a3f608084018260020b9052565b5060a083015160a083015260c083015160c083015260e083015160e083015261010080840151818401525061012080840151611a85828501826001600160a01b03169052565b505061014092830151919092015290565b60008060008060808587031215611aac57600080fd5b8451935060208501516001600160801b0381168114611aca57600080fd5b604086015160609096015194979096509250505056fea26469706673582212207a0992d268c9ab48471b77d2fd225f9bf7ba9da35a6824f1195d67fa4188fec864736f6c63430008110033",
    "linkReferences": {}
  },
  "methodIdentifiers": {
    "onERC721Received(address,address,uint256,bytes)": "150b7a02",
    "serveLunch(uint256)": "8e3250a7",
    "sweepCrumbs(uint256)": "235d4046"
  },
  "id": 97
}