{
  "abi": [
    {
      "inputs": [
        {
          "internalType": "contract IJBController3_1",
          "name": "_controller",
          "type": "address"
        },
        {
          "internalType": "contract INonfungiblePositionManager",
          "name": "_positionManager",
          "type": "address"
        },
        {
          "internalType": "contract IWETH9",
          "name": "__weth",
          "type": "address"
        }
      ],
      "stateMutability": "nonpayable",
      "type": "constructor"
    },
    {
      "inputs": [
        {
          "internalType": "uint256",
          "name": "prod1",
          "type": "uint256"
        },
        {
          "internalType": "uint256",
          "name": "denominator",
          "type": "uint256"
        }
      ],
      "name": "PRBMath__MulDivOverflow",
      "type": "error"
    },
    {
      "inputs": [],
      "name": "YUCK",
      "type": "error"
    },
    {
      "anonymous": false,
      "inputs": [
        {
          "indexed": true,
          "internalType": "uint256",
          "name": "projectId",
          "type": "uint256"
        },
        {
          "indexed": true,
          "internalType": "uint256",
          "name": "lpId",
          "type": "uint256"
        },
        {
          "indexed": false,
          "internalType": "uint256",
          "name": "ethFeeAmount",
          "type": "uint256"
        },
        {
          "indexed": false,
          "internalType": "uint256",
          "name": "tokenFeeAmount",
          "type": "uint256"
        },
        {
          "indexed": false,
          "internalType": "address",
          "name": "sender",
          "type": "address"
        }
      ],
      "name": "CrumbsWereSwept",
      "type": "event"
    },
    {
      "anonymous": false,
      "inputs": [
        {
          "indexed": true,
          "internalType": "uint256",
          "name": "projectId",
          "type": "uint256"
        },
        {
          "indexed": true,
          "internalType": "uint256",
          "name": "lpId",
          "type": "uint256"
        },
        {
          "indexed": false,
          "internalType": "uint256",
          "name": "projectBalance",
          "type": "uint256"
        },
        {
          "indexed": false,
          "internalType": "uint256",
          "name": "ethBalance",
          "type": "uint256"
        },
        {
          "indexed": false,
          "internalType": "uint256",
          "name": "tokenBalance",
          "type": "uint256"
        },
        {
          "indexed": false,
          "internalType": "address",
          "name": "sender",
          "type": "address"
        }
      ],
      "name": "LunchWasServed",
      "type": "event"
    },
    {
      "inputs": [],
      "name": "codeOrigin",
      "outputs": [
        {
          "internalType": "address",
          "name": "",
          "type": "address"
        }
      ],
      "stateMutability": "view",
      "type": "function"
    },
    {
      "inputs": [],
      "name": "controller",
      "outputs": [
        {
          "internalType": "contract IJBController3_1",
          "name": "",
          "type": "address"
        }
      ],
      "stateMutability": "view",
      "type": "function"
    },
    {
      "inputs": [
        {
          "internalType": "uint256",
          "name": "",
          "type": "uint256"
        }
      ],
      "name": "lpIdOf",
      "outputs": [
        {
          "internalType": "uint256",
          "name": "",
          "type": "uint256"
        }
      ],
      "stateMutability": "view",
      "type": "function"
    },
    {
      "inputs": [],
      "name": "lpPercent",
      "outputs": [
        {
          "internalType": "uint256",
          "name": "",
          "type": "uint256"
        }
      ],
      "stateMutability": "view",
      "type": "function"
    },
    {
      "inputs": [],
      "name": "lpSupplyMultiplier",
      "outputs": [
        {
          "internalType": "uint256",
          "name": "",
          "type": "uint256"
        }
      ],
      "stateMutability": "view",
      "type": "function"
    },
    {
      "inputs": [
        {
          "internalType": "address",
          "name": "_operator",
          "type": "address"
        },
        {
          "internalType": "address",
          "name": "_from",
          "type": "address"
        },
        {
          "internalType": "uint256",
          "name": "_tokenId",
          "type": "uint256"
        },
        {
          "internalType": "bytes",
          "name": "_data",
          "type": "bytes"
        }
      ],
      "name": "onERC721Received",
      "outputs": [
        {
          "internalType": "bytes4",
          "name": "",
          "type": "bytes4"
        }
      ],
      "stateMutability": "nonpayable",
      "type": "function"
    },
    {
      "inputs": [],
      "name": "positionManager",
      "outputs": [
        {
          "internalType": "contract INonfungiblePositionManager",
          "name": "",
          "type": "address"
        }
      ],
      "stateMutability": "view",
      "type": "function"
    },
    {
      "inputs": [
        {
          "internalType": "uint256",
          "name": "_lpSupplyMultiplier",
          "type": "uint256"
        },
        {
          "components": [
            {
              "internalType": "bool",
              "name": "preferClaimed",
              "type": "bool"
            },
            {
              "internalType": "bool",
              "name": "preferAddToBalance",
              "type": "bool"
            },
            {
              "internalType": "uint256",
              "name": "percent",
              "type": "uint256"
            },
            {
              "internalType": "uint256",
              "name": "projectId",
              "type": "uint256"
            },
            {
              "internalType": "address payable",
              "name": "beneficiary",
              "type": "address"
            },
            {
              "internalType": "uint256",
              "name": "lockedUntil",
              "type": "uint256"
            },
            {
              "internalType": "contract IJBSplitAllocator",
              "name": "allocator",
              "type": "address"
            }
          ],
          "internalType": "struct JBSplit[]",
          "name": "__splits",
          "type": "tuple[]"
        }
      ],
      "name": "setTheTable",
      "outputs": [],
      "stateMutability": "nonpayable",
      "type": "function"
    },
    {
      "inputs": [],
      "name": "splits",
      "outputs": [
        {
          "components": [
            {
              "internalType": "bool",
              "name": "preferClaimed",
              "type": "bool"
            },
            {
              "internalType": "bool",
              "name": "preferAddToBalance",
              "type": "bool"
            },
            {
              "internalType": "uint256",
              "name": "percent",
              "type": "uint256"
            },
            {
              "internalType": "uint256",
              "name": "projectId",
              "type": "uint256"
            },
            {
              "internalType": "address payable",
              "name": "beneficiary",
              "type": "address"
            },
            {
              "internalType": "uint256",
              "name": "lockedUntil",
              "type": "uint256"
            },
            {
              "internalType": "contract IJBSplitAllocator",
              "name": "allocator",
              "type": "address"
            }
          ],
          "internalType": "struct JBSplit[]",
          "name": "",
          "type": "tuple[]"
        }
      ],
      "stateMutability": "view",
      "type": "function"
    },
    {
      "inputs": [
        {
          "internalType": "uint256",
          "name": "_projectId",
          "type": "uint256"
        }
      ],
      "name": "sweepCrumbs",
      "outputs": [],
      "stateMutability": "nonpayable",
      "type": "function"
    }
  ],
  "bytecode": {
    "object": "0x60a06040523480156200001157600080fd5b50604051620029ea380380620029ea833981016040819052620000349162000094565b600380546001600160a01b039485166001600160a01b03199182161790915560048054938516938216939093179092556000805491909316911617905530608052620000e8565b6001600160a01b03811681146200009157600080fd5b50565b600080600060608486031215620000aa57600080fd5b8351620000b7816200007b565b6020850151909350620000ca816200007b565b6040850151909250620000dd816200007b565b809150509250925092565b6080516128df6200010b6000396000818161013e0152610a2601526128df6000f3fe608060405234801561001057600080fd5b50600436106100bd5760003560e01c80636cbdec7d11610076578063cdb7422e1161005b578063cdb7422e146101d8578063e091a297146101eb578063f77c4791146101f457600080fd5b80636cbdec7d146101a3578063791b98bc146101b857600080fd5b80631d153ca4116100a75780631d153ca414610139578063235d40461461018557806341cb02421461019a57600080fd5b806278c931146100c2578063150b7a02146100f5575b600080fd5b6100e26100d0366004611e38565b60056020526000908152604090205481565b6040519081526020015b60405180910390f35b610108610103366004611e76565b610214565b6040517fffffffff0000000000000000000000000000000000000000000000000000000090911681526020016100ec565b6101607f000000000000000000000000000000000000000000000000000000000000000081565b60405173ffffffffffffffffffffffffffffffffffffffff90911681526020016100ec565b610198610193366004611e38565b610340565b005b6100e260025481565b6101ab61094a565b6040516100ec9190611f15565b6004546101609073ffffffffffffffffffffffffffffffffffffffff1681565b6101986101e6366004611fb9565b610a0f565b6100e260065481565b6003546101609073ffffffffffffffffffffffffffffffffffffffff1681565b600354604080517f8b79543c000000000000000000000000000000000000000000000000000000008152905160009273ffffffffffffffffffffffffffffffffffffffff1691638b79543c9160048083019260209291908290030181865afa158015610284573d6000803e3d6000fd5b505050506040513d601f19601f820116820180604052508101906102a89190612038565b73ffffffffffffffffffffffffffffffffffffffff163373ffffffffffffffffffffffffffffffffffffffff161461030c576040517f7795511200000000000000000000000000000000000000000000000000000000815260040160405180910390fd5b61031584610d23565b507f150b7a020000000000000000000000000000000000000000000000000000000095945050505050565b60008181526005602090815260409182902054600480548451608081018652838152309481019485526fffffffffffffffffffffffffffffffff8187018181526060830182815297517ffc6f7865000000000000000000000000000000000000000000000000000000008152925194830194909452945173ffffffffffffffffffffffffffffffffffffffff908116602483015292518516604482015294519093166064850152909291169063fc6f78659060840160408051808303816000875af1158015610413573d6000803e3d6000fd5b505050506040513d601f19601f820116820180604052508101906104379190612055565b50506000546040517f70a0823100000000000000000000000000000000000000000000000000000000815230600482015273ffffffffffffffffffffffffffffffffffffffff90911690632e1a7d4d9082906370a0823190602401602060405180830381865afa1580156104af573d6000803e3d6000fd5b505050506040513d601f19601f820116820180604052508101906104d39190612079565b6040518263ffffffff1660e01b81526004016104f191815260200190565b600060405180830381600087803b15801561050b57600080fd5b505af115801561051f573d6000803e3d6000fd5b505050506000600360009054906101000a900473ffffffffffffffffffffffffffffffffffffffff1673ffffffffffffffffffffffffffffffffffffffff1663c41c2f246040518163ffffffff1660e01b8152600401602060405180830381865afa158015610592573d6000803e3d6000fd5b505050506040513d601f19601f820116820180604052508101906105b69190612038565b6040517f862026500000000000000000000000000000000000000000000000000000000081526004810185905261eeee602482015273ffffffffffffffffffffffffffffffffffffffff9190911690638620265090604401602060405180830381865afa15801561062b573d6000803e3d6000fd5b505050506040513d601f19601f8201168201806040525081019061064f9190612038565b905060004790508173ffffffffffffffffffffffffffffffffffffffff16630cf8e85847868461eeee7f31000000000000000000000000000000000000000000000000000000000000006040516020016106ab91815260200190565b6040516020818303038152906040526040518663ffffffff1660e01b81526004016106d994939291906120f6565b6000604051808303818588803b1580156106f257600080fd5b505af1158015610706573d6000803e3d6000fd5b50505050506000600360009054906101000a900473ffffffffffffffffffffffffffffffffffffffff1673ffffffffffffffffffffffffffffffffffffffff1663619306306040518163ffffffff1660e01b8152600401602060405180830381865afa15801561077a573d6000803e3d6000fd5b505050506040513d601f19601f8201168201806040525081019061079e9190612038565b6040517efdd58e0000000000000000000000000000000000000000000000000000000081523060048201526024810187905273ffffffffffffffffffffffffffffffffffffffff919091169062fdd58e90604401602060405180830381865afa15801561080f573d6000803e3d6000fd5b505050506040513d601f19601f820116820180604052508101906108339190612079565b6003546040517f1665bc0f000000000000000000000000000000000000000000000000000000008152306004820152602481018890526044810183905260a06064820152601060a48201527f6d6d6d6d6d2c2064656c6963696f75730000000000000000000000000000000060c48201526001608482015291925073ffffffffffffffffffffffffffffffffffffffff1690631665bc0f9060e401600060405180830381600087803b1580156108e857600080fd5b505af11580156108fc573d6000803e3d6000fd5b50506040805185815260208101859052338183015290518793508892507fe9891edc01eb9bebea32ee795181b21c41ad1ffa99a3eb076079dc73bc0efe119181900360600190a35050505050565b60606001805480602002602001604051908101604052809291908181526020016000905b82821015610a065760008481526020908190206040805160e08101825260068602909201805460ff80821615158552610100909104161515838501526001808201549284019290925260028101546060840152600381015473ffffffffffffffffffffffffffffffffffffffff9081166080850152600482015460a08501526005909101541660c0830152908352909201910161096e565b50505050905090565b73ffffffffffffffffffffffffffffffffffffffff7f0000000000000000000000000000000000000000000000000000000000000000163003610a5157600080fd5b60035473ffffffffffffffffffffffffffffffffffffffff1615610a7457600080fd5b60008311610aae576040517f7795511200000000000000000000000000000000000000000000000000000000815260040160405180910390fd5b60028390556040805160e081018252600080825260208201819052918101829052606081018290526080810182905260a0810182905260c081018290528291633b9aca00905b83811015610d0957858582818110610b0e57610b0e612149565b905060e00201803603810190610b2491906121d0565b9250826040015182610b3691906122c1565b9150633b9aca00821115610b76576040517f7795511200000000000000000000000000000000000000000000000000000000815260040160405180910390fd5b6040518060e001604052808460000151151581526020018460200151151581526020018460400151815260200184606001518152602001846080015173ffffffffffffffffffffffffffffffffffffffff1681526020018460a0015181526020018460c0015173ffffffffffffffffffffffffffffffffffffffff1681525060018281548110610c0857610c08612149565b600091825260209182902083516006909202018054928401511515610100027fffffffffffffffffffffffffffffffffffffffffffffffffffffffffffff00ff921515929092167fffffffffffffffffffffffffffffffffffffffffffffffffffffffffffff000090931692909217178155604082015160018083019190915560608301516002830155608083015160038301805473ffffffffffffffffffffffffffffffffffffffff9283167fffffffffffffffffffffffff00000000000000000000000000000000000000009182161790915560a0850151600485015560c0909401516005909301805493909116929093169190911790915501610af4565b50610d1881633b9aca006122da565b600655505050505050565b600354604080517fc41c2f24000000000000000000000000000000000000000000000000000000008152905160009273ffffffffffffffffffffffffffffffffffffffff169163c41c2f249160048083019260209291908290030181865afa158015610d93573d6000803e3d6000fd5b505050506040513d601f19601f82011682018060405250810190610db79190612038565b6040517f862026500000000000000000000000000000000000000000000000000000000081526004810184905261eeee602482015273ffffffffffffffffffffffffffffffffffffffff9190911690638620265090604401602060405180830381865afa158015610e2c573d6000803e3d6000fd5b505050506040513d601f19601f82011682018060405250810190610e509190612038565b905060008173ffffffffffffffffffffffffffffffffffffffff1663975057e76040518163ffffffff1660e01b8152600401602060405180830381865afa158015610e9f573d6000803e3d6000fd5b505050506040513d601f19601f82011682018060405250810190610ec39190612038565b6040517efdd58e00000000000000000000000000000000000000000000000000000000815273ffffffffffffffffffffffffffffffffffffffff848116600483015260248201869052919091169062fdd58e90604401602060405180830381865afa158015610f36573d6000803e3d6000fd5b505050506040513d601f19601f82011682018060405250810190610f5a9190612079565b90506000600360009054906101000a900473ffffffffffffffffffffffffffffffffffffffff1673ffffffffffffffffffffffffffffffffffffffff1663619306306040518163ffffffff1660e01b8152600401602060405180830381865afa158015610fcb573d6000803e3d6000fd5b505050506040513d601f19601f82011682018060405250810190610fef9190612038565b73ffffffffffffffffffffffffffffffffffffffff1663ea78803f856040518263ffffffff1660e01b815260040161102991815260200190565b602060405180830381865afa158015611046573d6000803e3d6000fd5b505050506040513d601f19601f8201168201806040525081019061106a9190612038565b6040517f1982d67900000000000000000000000000000000000000000000000000000000815261eeee600482015290915060009073ffffffffffffffffffffffffffffffffffffffff851690631982d67990602401602060405180830381865afa1580156110dc573d6000803e3d6000fd5b505050506040513d601f19601f820116820180604052508101906111009190612079565b60408051600180825281830190925291925060009190816020015b6111806040518060c00160405280600073ffffffffffffffffffffffffffffffffffffffff168152602001600073ffffffffffffffffffffffffffffffffffffffff168152602001600081526020016000815260200160008152602001600081525090565b81526020019060019003908161111b5790505090506040518060c001604052808673ffffffffffffffffffffffffffffffffffffffff16815260200161eeee73ffffffffffffffffffffffffffffffffffffffff1681526020018581526020018381526020016000815260200160008152508160008151811061120557611205612149565b602090810291909101015260018054906000906112239083906122c1565b67ffffffffffffffff81111561123b5761123b612178565b6040519080825280602002602001820160405280156112c057816020015b6040805160e08101825260008082526020808301829052928201819052606082018190526080820181905260a0820181905260c082015282527fffffffffffffffffffffffffffffffffffffffffffffffffffffffffffffffff9092019101816112595790505b50905060005b8281101561138d57600181815481106112e1576112e1612149565b60009182526020918290206040805160e0810182526006909302909101805460ff808216151585526101009091041615159383019390935260018301549082015260028201546060820152600382015473ffffffffffffffffffffffffffffffffffffffff9081166080830152600483015460a083015260059092015490911660c0820152825183908390811061137a5761137a612149565b60209081029190910101526001016112c6565b506040518060e001604052806000151581526020016000151581526020016006548152602001600081526020013073ffffffffffffffffffffffffffffffffffffffff16815260200160008152602001600073ffffffffffffffffffffffffffffffffffffffff1681525081838151811061140a5761140a612149565b6020908102919091010152604080516001808252818301909252600091816020015b60408051808201909152600081526060602082015281526020019060019003908161142c579050509050604051806040016040528060018152602001838152508160008151811061147f5761147f612149565b60209081029190910181019190915260035460408051608080820183526000808352828601819052828401819052606080840182905284516102a081018652610240810183815261026082018490526102808201849052815296870182905261271087860181905290870152600191860182905260a0860181905260c0860181905260e0860181905261010086019190915261012085018190526101408501819052610160850181905261018085018190526101a085018190526101c085018190526101e085018190526102008501819052610220850181905291517fbadbdf2800000000000000000000000000000000000000000000000000000000815273ffffffffffffffffffffffffffffffffffffffff9093169363badbdf28936115b1938f93929188908c90600401612466565b6020604051808303816000875af11580156115d0573d6000803e3d6000fd5b505050506040513d601f19601f820116820180604052508101906115f49190612079565b5050505050600060025461171a600360009054906101000a900473ffffffffffffffffffffffffffffffffffffffff1673ffffffffffffffffffffffffffffffffffffffff1663619306306040518163ffffffff1660e01b8152600401602060405180830381865afa15801561166e573d6000803e3d6000fd5b505050506040513d601f19601f820116820180604052508101906116929190612038565b73ffffffffffffffffffffffffffffffffffffffff166375b0d9cd896040518263ffffffff1660e01b81526004016116cc91815260200190565b602060405180830381865afa1580156116e9573d6000803e3d6000fd5b505050506040513d601f19601f8201168201806040525081019061170d9190612079565b600654633b9aca00611d2a565b6117249190612677565b6003546040517f8ae9c07b000000000000000000000000000000000000000000000000000000008152600481018990526024810183905230604482015260c06064820152601560c48201527f496e6772656469656e747320666f72206c756e6368000000000000000000000060e482015260016084820152600060a482015291925073ffffffffffffffffffffffffffffffffffffffff1690638ae9c07b90610104016020604051808303816000875af11580156117e6573d6000803e3d6000fd5b505050506040513d601f19601f8201168201806040525081019061180a9190612079565b50604080516020810182526000815290517f4a4305c000000000000000000000000000000000000000000000000000000000815273ffffffffffffffffffffffffffffffffffffffff871691634a4305c091611874918a918991889161eeee91849160040161268e565b6020604051808303816000875af1158015611893573d6000803e3d6000fd5b505050506040513d601f19601f820116820180604052508101906118b79190612079565b5060008054604080517fd0e30db00000000000000000000000000000000000000000000000000000000081529051479373ffffffffffffffffffffffffffffffffffffffff9093169263d0e30db09285926004808301939282900301818588803b15801561192457600080fd5b505af1158015611938573d6000803e3d6000fd5b5050600480546040517f095ea7b300000000000000000000000000000000000000000000000000000000815273ffffffffffffffffffffffffffffffffffffffff91821692810192909252602482018790528816935063095ea7b3925060440190506020604051808303816000875af11580156119b9573d6000803e3d6000fd5b505050506040513d601f19601f820116820180604052508101906119dd91906126e1565b50600054600480546040517f70a08231000000000000000000000000000000000000000000000000000000008152309281019290925273ffffffffffffffffffffffffffffffffffffffff9283169263095ea7b39291169083906370a0823190602401602060405180830381865afa158015611a5d573d6000803e3d6000fd5b505050506040513d601f19601f82011682018060405250810190611a819190612079565b6040517fffffffff0000000000000000000000000000000000000000000000000000000060e085901b16815273ffffffffffffffffffffffffffffffffffffffff909216600483015260248201526044016020604051808303816000875af1158015611af1573d6000803e3d6000fd5b505050506040513d601f19601f82011682018060405250810190611b1591906126e1565b50600454604080516101608101825273ffffffffffffffffffffffffffffffffffffffff87811682526000805482166020840152612710938301939093527ffffffffffffffffffffffffffffffffffffffffffffffffffffffffffff276186060830181905292931691638831645691906080820190611b94906126fe565b60020b815260208101879052600054604080517f70a0823100000000000000000000000000000000000000000000000000000000815230600482015292019173ffffffffffffffffffffffffffffffffffffffff909116906370a0823190602401602060405180830381865afa158015611c12573d6000803e3d6000fd5b505050506040513d601f19601f82011682018060405250810190611c369190612079565b81526000602082018190526040820152306060820152608001611c5b4261ea606122c1565b8152506040518263ffffffff1660e01b8152600401611c7a919061273c565b6080604051808303816000875af1158015611c99573d6000803e3d6000fd5b505050506040513d601f19601f82011682018060405250810190611cbd9190612827565b5050506000898152600560209081526040918290208390558151898152908101859052908101859052336060820152909150819089907f98119214c22a703530adfc3ac49c6bed3ccedf37ca3c9832e60d2c17b82cc87f9060800160405180910390a35050505050505050565b600080807fffffffffffffffffffffffffffffffffffffffffffffffffffffffffffffffff85870985870292508281108382030391505080600003611d8257838281611d7857611d7861287a565b0492505050611e31565b838110611dc9576040517f773cc18c000000000000000000000000000000000000000000000000000000008152600481018290526024810185905260440160405180910390fd5b600084868809851960019081018716968790049682860381900495909211909303600082900391909104909201919091029190911760038402600290811880860282030280860282030280860282030280860282030280860282030280860290910302029150505b9392505050565b600060208284031215611e4a57600080fd5b5035919050565b73ffffffffffffffffffffffffffffffffffffffff81168114611e7357600080fd5b50565b600080600080600060808688031215611e8e57600080fd5b8535611e9981611e51565b94506020860135611ea981611e51565b935060408601359250606086013567ffffffffffffffff80821115611ecd57600080fd5b818801915088601f830112611ee157600080fd5b813581811115611ef057600080fd5b896020828501011115611f0257600080fd5b9699959850939650602001949392505050565b6020808252825182820181905260009190848201906040850190845b81811015611fad578351805115158452602080820151151590850152604080820151908501526060808201519085015260808082015173ffffffffffffffffffffffffffffffffffffffff9081169186019190915260a0808301519086015260c091820151169084015260e08301938501939250600101611f31565b50909695505050505050565b600080600060408486031215611fce57600080fd5b83359250602084013567ffffffffffffffff80821115611fed57600080fd5b818601915086601f83011261200157600080fd5b81358181111561201057600080fd5b87602060e08302850101111561202557600080fd5b6020830194508093505050509250925092565b60006020828403121561204a57600080fd5b8151611e3181611e51565b6000806040838503121561206857600080fd5b505080516020909101519092909150565b60006020828403121561208b57600080fd5b5051919050565b6000815180845260005b818110156120b85760208185018101518683018201520161209c565b5060006020828601015260207fffffffffffffffffffffffffffffffffffffffffffffffffffffffffffffffe0601f83011685010191505092915050565b84815283602082015273ffffffffffffffffffffffffffffffffffffffff8316604082015260a06060820152600060a082015260c06080820152600061213f60c0830184612092565b9695505050505050565b7f4e487b7100000000000000000000000000000000000000000000000000000000600052603260045260246000fd5b7f4e487b7100000000000000000000000000000000000000000000000000000000600052604160045260246000fd5b8015158114611e7357600080fd5b80356121c0816121a7565b919050565b80356121c081611e51565b600060e082840312156121e257600080fd5b60405160e0810181811067ffffffffffffffff8211171561222c577f4e487b7100000000000000000000000000000000000000000000000000000000600052604160045260246000fd5b604052612238836121b5565b8152612246602084016121b5565b6020820152604083013560408201526060830135606082015261226b608084016121c5565b608082015260a083013560a082015261228660c084016121c5565b60c08201529392505050565b7f4e487b7100000000000000000000000000000000000000000000000000000000600052601160045260246000fd5b808201808211156122d4576122d4612292565b92915050565b818103818111156122d4576122d4612292565b6000815180845260208085019450848260051b86018286016000805b868110156123d0578484038a528251805185528601516040878601819052815190860181905290870190606086019084905b808210156123bb578351805115158452602080820151151590850152604080820151908501526060808201519085015260808082015173ffffffffffffffffffffffffffffffffffffffff9081169186019190915260a0808301519086015260c091820151169084015260e083019250898401935060018201915061233b565b50509a87019a94505091850191600101612309565b509198975050505050505050565b600081518084526020808501945080840160005b8381101561245b578151805173ffffffffffffffffffffffffffffffffffffffff908116895284820151168489015260408082015190890152606080820151908901526080808201519089015260a0908101519088015260c090960195908201906001016123f2565b509495945050505050565b60006103a088835287516020840152602088015160408401526040880151606084015273ffffffffffffffffffffffffffffffffffffffff60608901511660808401526124d160a0840188518051151582526020808201511515908301526040908101511515910152565b6020870151610100818186015260408901519150610120828187015260608a01519250610140838188015260808b015193506101606125138189018615159052565b60a08c0151945061018061252a818a018715159052565b60c08d015195506101a0612541818b018815159052565b60e08e015196506101c0612558818c018915159052565b958e015196506101e09561256f8b88018915159052565b948e01519650610200946125868b87018915159052565b938e015196506102209361259d8b86018915159052565b928e015115156102408b0152908d015115156102608a01528c015115156102808901528b015115156102a0880152918a015115156102c087015289015173ffffffffffffffffffffffffffffffffffffffff166102e0860152880151610300850152506103208301869052610340830181905261261c818401866122ed565b905082810361036084015261263181856123de565b838103610380850152600e81527f5072657070696e67206c756e636800000000000000000000000000000000000060208201529050604081019998505050505050505050565b80820281158282048414176122d4576122d4612292565b86815285602082015284604082015273ffffffffffffffffffffffffffffffffffffffff8416606082015282608082015260c060a082015260006126d560c0830184612092565b98975050505050505050565b6000602082840312156126f357600080fd5b8151611e31816121a7565b60008160020b7fffffffffffffffffffffffffffffffffffffffffffffffffffffffffff800000810361273357612733612292565b60000392915050565b815173ffffffffffffffffffffffffffffffffffffffff16815261016081016020830151612782602084018273ffffffffffffffffffffffffffffffffffffffff169052565b506040830151612799604084018262ffffff169052565b5060608301516127ae606084018260020b9052565b5060808301516127c3608084018260020b9052565b5060a083015160a083015260c083015160c083015260e083015160e0830152610100808401518184015250610120808401516128168285018273ffffffffffffffffffffffffffffffffffffffff169052565b505061014092830151919092015290565b6000806000806080858703121561283d57600080fd5b8451935060208501516fffffffffffffffffffffffffffffffff8116811461286457600080fd5b6040860151606090960151949790965092505050565b7f4e487b7100000000000000000000000000000000000000000000000000000000600052601260045260246000fdfea2646970667358221220fd3949d5540243ef3a50b82cb2b29461cea50911b76b090b9e133daa8f9bcb7b64736f6c63430008110033",
    "linkReferences": {}
  },
  "methodIdentifiers": {
    "codeOrigin()": "1d153ca4",
    "controller()": "f77c4791",
    "lpIdOf(uint256)": "0078c931",
    "lpPercent()": "e091a297",
    "lpSupplyMultiplier()": "41cb0242",
    "onERC721Received(address,address,uint256,bytes)": "150b7a02",
    "positionManager()": "791b98bc",
    "setTheTable(uint256,(bool,bool,uint256,uint256,address,uint256,address)[])": "cdb7422e",
    "splits()": "6cbdec7d",
    "sweepCrumbs(uint256)": "235d4046"
  },
  "id": 99
}